{"contracts/Assetmgt.sol":{"Assetmgt":{"abi":[{"inputs":[{"internalType":"uint256","name":"","type":"uint256"}],"name":"activities","outputs":[{"internalType":"uint256","name":"blockNum","type":"uint256"},{"internalType":"address","name":"caller","type":"address"},{"internalType":"string","name":"description","type":"string"}],"stateMutability":"view","type":"function"},{"inputs":[{"internalType":"address","name":"userAddress","type":"address"},{"internalType":"string","name":"userName","type":"string"},{"internalType":"uint256","name":"userAge","type":"uint256"},{"internalType":"uint256","name":"userInitialValue","type":"uint256"}],"name":"addUser","outputs":[],"stateMutability":"nonpayable","type":"function"},{"inputs":[{"internalType":"address","name":"userAddress","type":"address"}],"name":"getCurrentValue","outputs":[{"internalType":"uint256","name":"","type":"uint256"}],"stateMutability":"view","type":"function"},{"inputs":[{"internalType":"address","name":"userAddress","type":"address"}],"name":"getUser","outputs":[{"internalType":"string","name":"","type":"string"},{"internalType":"uint256","name":"","type":"uint256"},{"internalType":"uint256","name":"","type":"uint256"},{"internalType":"uint256","name":"","type":"uint256"}],"stateMutability":"view","type":"function"},{"inputs":[{"internalType":"address payable","name":"recipient","type":"address"},{"internalType":"uint256","name":"amount","type":"uint256"}],"name":"transfer","outputs":[],"stateMutability":"nonpayable","type":"function"},{"inputs":[{"internalType":"address","name":"","type":"address"}],"name":"users","outputs":[{"internalType":"string","name":"name","type":"string"},{"internalType":"uint256","name":"age","type":"uint256"},{"internalType":"uint256","name":"balance","type":"uint256"},{"internalType":"uint256","name":"created","type":"uint256"},{"internalType":"uint256","name":"initialValue","type":"uint256"},{"internalType":"uint256","name":"currentValue","type":"uint256"}],"stateMutability":"view","type":"function"},{"inputs":[{"internalType":"uint256","name":"","type":"uint256"}],"name":"usersAdded","outputs":[{"internalType":"address","name":"","type":"address"}],"stateMutability":"view","type":"function"}],"evm":{"bytecode":{"linkReferences":{},"object":"608060405234801561001057600080fd5b506110a7806100206000396000f3fe608060405234801561001057600080fd5b506004361061007d5760003560e01c80636f77926b1161005b5780636f77926b14610100578063819a9edd14610133578063a87430ba14610163578063a9059cbb146101985761007d565b80630d1657e81461008257806310c234b8146100b4578063422f764d146100d0575b600080fd5b61009c60048036038101906100979190610a1e565b6101b4565b6040516100ab93929190610b34565b60405180910390f35b6100ce60048036038101906100c99190610cd3565b610296565b005b6100ea60048036038101906100e59190610d56565b6104f6565b6040516100f79190610d83565b60405180910390f35b61011a60048036038101906101159190610d56565b610546565b60405161012a9493929190610d9e565b60405180910390f35b61014d60048036038101906101489190610a1e565b61063d565b60405161015a9190610dea565b60405180910390f35b61017d60048036038101906101789190610d56565b61067c565b60405161018f96959493929190610e05565b60405180910390f35b6101b260048036038101906101ad9190610eab565b610740565b005b600281815481106101c457600080fd5b90600052602060002090600302016000915090508060000154908060010160009054906101000a900473ffffffffffffffffffffffffffffffffffffffff169080600201805461021390610f1a565b80601f016020809104026020016040519081016040528092919081815260200182805461023f90610f1a565b801561028c5780601f106102615761010080835404028352916020019161028c565b820191906000526020600020905b81548152906001019060200180831161026f57829003601f168201915b5050505050905083565b6040518060c001604052808481526020018381526020018573ffffffffffffffffffffffffffffffffffffffff163181526020014381526020018281526020018573ffffffffffffffffffffffffffffffffffffffff1631836102f99190610f7b565b8152506000808673ffffffffffffffffffffffffffffffffffffffff1673ffffffffffffffffffffffffffffffffffffffff1681526020019081526020016000206000820151816000019080519060200190610356929190610931565b506020820151816001015560408201518160020155606082015181600301556080820151816004015560a082015181600501559050506001849080600181540180825580915050600190039060005260206000200160009091909190916101000a81548173ffffffffffffffffffffffffffffffffffffffff021916908373ffffffffffffffffffffffffffffffffffffffff160217905550600260405180606001604052804381526020013373ffffffffffffffffffffffffffffffffffffffff1681526020016040518060400160405280600c81526020017f557365722061646465643a20000000000000000000000000000000000000000081525081525090806001815401808255809150506001900390600052602060002090600302016000909190919091506000820151816000015560208201518160010160006101000a81548173ffffffffffffffffffffffffffffffffffffffff021916908373ffffffffffffffffffffffffffffffffffffffff16021790555060408201518160020190805190602001906104ed929190610931565b50505050505050565b6000806000808473ffffffffffffffffffffffffffffffffffffffff1673ffffffffffffffffffffffffffffffffffffffff16815260200190815260200160002090508060050154915050919050565b60606000806000806000808773ffffffffffffffffffffffffffffffffffffffff1673ffffffffffffffffffffffffffffffffffffffff1681526020019081526020016000209050806000018160010154826002015483600301548380546105ad90610f1a565b80601f01602080910402602001604051908101604052809291908181526020018280546105d990610f1a565b80156106265780601f106105fb57610100808354040283529160200191610626565b820191906000526020600020905b81548152906001019060200180831161060957829003601f168201915b505050505093509450945094509450509193509193565b6001818154811061064d57600080fd5b906000526020600020016000915054906101000a900473ffffffffffffffffffffffffffffffffffffffff1681565b600060205280600052604060002060009150905080600001805461069f90610f1a565b80601f01602080910402602001604051908101604052809291908181526020018280546106cb90610f1a565b80156107185780601f106106ed57610100808354040283529160200191610718565b820191906000526020600020905b8154815290600101906020018083116106fb57829003601f168201915b5050505050908060010154908060020154908060030154908060040154908060050154905086565b60008060003373ffffffffffffffffffffffffffffffffffffffff1673ffffffffffffffffffffffffffffffffffffffff168152602001908152602001600020905081816005015410156107c9576040517f08c379a00000000000000000000000000000000000000000000000000000000081526004016107c09061101d565b60405180910390fd5b818160050160008282546107dd919061103d565b925050819055508273ffffffffffffffffffffffffffffffffffffffff166108fc839081150290604051600060405180830381858888f1935050505015801561082a573d6000803e3d6000fd5b50600260405180606001604052804381526020013373ffffffffffffffffffffffffffffffffffffffff1681526020016040518060400160405280601181526020017f4574686572207472616e7366657272656400000000000000000000000000000081525081525090806001815401808255809150506001900390600052602060002090600302016000909190919091506000820151816000015560208201518160010160006101000a81548173ffffffffffffffffffffffffffffffffffffffff021916908373ffffffffffffffffffffffffffffffffffffffff1602179055506040820151816002019080519060200190610929929190610931565b505050505050565b82805461093d90610f1a565b90600052602060002090601f01602090048101928261095f57600085556109a6565b82601f1061097857805160ff19168380011785556109a6565b828001600101855582156109a6579182015b828111156109a557825182559160200191906001019061098a565b5b5090506109b391906109b7565b5090565b5b808211156109d05760008160009055506001016109b8565b5090565b6000604051905090565b600080fd5b600080fd5b6000819050919050565b6109fb816109e8565b8114610a0657600080fd5b50565b600081359050610a18816109f2565b92915050565b600060208284031215610a3457610a336109de565b5b6000610a4284828501610a09565b91505092915050565b610a54816109e8565b82525050565b600073ffffffffffffffffffffffffffffffffffffffff82169050919050565b6000610a8582610a5a565b9050919050565b610a9581610a7a565b82525050565b600081519050919050565b600082825260208201905092915050565b60005b83811015610ad5578082015181840152602081019050610aba565b83811115610ae4576000848401525b50505050565b6000601f19601f8301169050919050565b6000610b0682610a9b565b610b108185610aa6565b9350610b20818560208601610ab7565b610b2981610aea565b840191505092915050565b6000606082019050610b496000830186610a4b565b610b566020830185610a8c565b8181036040830152610b688184610afb565b9050949350505050565b610b7b81610a7a565b8114610b8657600080fd5b50565b600081359050610b9881610b72565b92915050565b600080fd5b600080fd5b7f4e487b7100000000000000000000000000000000000000000000000000000000600052604160045260246000fd5b610be082610aea565b810181811067ffffffffffffffff82111715610bff57610bfe610ba8565b5b80604052505050565b6000610c126109d4565b9050610c1e8282610bd7565b919050565b600067ffffffffffffffff821115610c3e57610c3d610ba8565b5b610c4782610aea565b9050602081019050919050565b82818337600083830152505050565b6000610c76610c7184610c23565b610c08565b905082815260208101848484011115610c9257610c91610ba3565b5b610c9d848285610c54565b509392505050565b600082601f830112610cba57610cb9610b9e565b5b8135610cca848260208601610c63565b91505092915050565b60008060008060808587031215610ced57610cec6109de565b5b6000610cfb87828801610b89565b945050602085013567ffffffffffffffff811115610d1c57610d1b6109e3565b5b610d2887828801610ca5565b9350506040610d3987828801610a09565b9250506060610d4a87828801610a09565b91505092959194509250565b600060208284031215610d6c57610d6b6109de565b5b6000610d7a84828501610b89565b91505092915050565b6000602082019050610d986000830184610a4b565b92915050565b60006080820190508181036000830152610db88187610afb565b9050610dc76020830186610a4b565b610dd46040830185610a4b565b610de16060830184610a4b565b95945050505050565b6000602082019050610dff6000830184610a8c565b92915050565b600060c0820190508181036000830152610e1f8189610afb565b9050610e2e6020830188610a4b565b610e3b6040830187610a4b565b610e486060830186610a4b565b610e556080830185610a4b565b610e6260a0830184610a4b565b979650505050505050565b6000610e7882610a5a565b9050919050565b610e8881610e6d565b8114610e9357600080fd5b50565b600081359050610ea581610e7f565b92915050565b60008060408385031215610ec257610ec16109de565b5b6000610ed085828601610e96565b9250506020610ee185828601610a09565b9150509250929050565b7f4e487b7100000000000000000000000000000000000000000000000000000000600052602260045260246000fd5b60006002820490506001821680610f3257607f821691505b60208210811415610f4657610f45610eeb565b5b50919050565b7f4e487b7100000000000000000000000000000000000000000000000000000000600052601160045260246000fd5b6000610f86826109e8565b9150610f91836109e8565b9250827fffffffffffffffffffffffffffffffffffffffffffffffffffffffffffffffff03821115610fc657610fc5610f4c565b5b828201905092915050565b7f496e73756666696369656e742062616c616e63652e0000000000000000000000600082015250565b6000611007601583610aa6565b915061101282610fd1565b602082019050919050565b6000602082019050818103600083015261103681610ffa565b9050919050565b6000611048826109e8565b9150611053836109e8565b92508282101561106657611065610f4c565b5b82820390509291505056fea264697066735822122050de6aa0f7d2ac05ddfeb600e224e3b7242eddbe48e5f3b5be361b8f100c44b964736f6c63430008090033","opcodes":"PUSH1 0x80 PUSH1 0x40 MSTORE CALLVALUE DUP1 ISZERO PUSH2 0x10 JUMPI PUSH1 0x0 DUP1 REVERT JUMPDEST POP PUSH2 0x10A7 DUP1 PUSH2 0x20 PUSH1 0x0 CODECOPY PUSH1 0x0 RETURN INVALID PUSH1 0x80 PUSH1 0x40 MSTORE CALLVALUE DUP1 ISZERO PUSH2 0x10 JUMPI PUSH1 0x0 DUP1 REVERT JUMPDEST POP PUSH1 0x4 CALLDATASIZE LT PUSH2 0x7D JUMPI PUSH1 0x0 CALLDATALOAD PUSH1 0xE0 SHR DUP1 PUSH4 0x6F77926B GT PUSH2 0x5B JUMPI DUP1 PUSH4 0x6F77926B EQ PUSH2 0x100 JUMPI DUP1 PUSH4 0x819A9EDD EQ PUSH2 0x133 JUMPI DUP1 PUSH4 0xA87430BA EQ PUSH2 0x163 JUMPI DUP1 PUSH4 0xA9059CBB EQ PUSH2 0x198 JUMPI PUSH2 0x7D JUMP JUMPDEST DUP1 PUSH4 0xD1657E8 EQ PUSH2 0x82 JUMPI DUP1 PUSH4 0x10C234B8 EQ PUSH2 0xB4 JUMPI DUP1 PUSH4 0x422F764D EQ PUSH2 0xD0 JUMPI JUMPDEST PUSH1 0x0 DUP1 REVERT JUMPDEST PUSH2 0x9C PUSH1 0x4 DUP1 CALLDATASIZE SUB DUP2 ADD SWAP1 PUSH2 0x97 SWAP2 SWAP1 PUSH2 0xA1E JUMP JUMPDEST PUSH2 0x1B4 JUMP JUMPDEST PUSH1 0x40 MLOAD PUSH2 0xAB SWAP4 SWAP3 SWAP2 SWAP1 PUSH2 0xB34 JUMP JUMPDEST PUSH1 0x40 MLOAD DUP1 SWAP2 SUB SWAP1 RETURN JUMPDEST PUSH2 0xCE PUSH1 0x4 DUP1 CALLDATASIZE SUB DUP2 ADD SWAP1 PUSH2 0xC9 SWAP2 SWAP1 PUSH2 0xCD3 JUMP JUMPDEST PUSH2 0x296 JUMP JUMPDEST STOP JUMPDEST PUSH2 0xEA PUSH1 0x4 DUP1 CALLDATASIZE SUB DUP2 ADD SWAP1 PUSH2 0xE5 SWAP2 SWAP1 PUSH2 0xD56 JUMP JUMPDEST PUSH2 0x4F6 JUMP JUMPDEST PUSH1 0x40 MLOAD PUSH2 0xF7 SWAP2 SWAP1 PUSH2 0xD83 JUMP JUMPDEST PUSH1 0x40 MLOAD DUP1 SWAP2 SUB SWAP1 RETURN JUMPDEST PUSH2 0x11A PUSH1 0x4 DUP1 CALLDATASIZE SUB DUP2 ADD SWAP1 PUSH2 0x115 SWAP2 SWAP1 PUSH2 0xD56 JUMP JUMPDEST PUSH2 0x546 JUMP JUMPDEST PUSH1 0x40 MLOAD PUSH2 0x12A SWAP5 SWAP4 SWAP3 SWAP2 SWAP1 PUSH2 0xD9E JUMP JUMPDEST PUSH1 0x40 MLOAD DUP1 SWAP2 SUB SWAP1 RETURN JUMPDEST PUSH2 0x14D PUSH1 0x4 DUP1 CALLDATASIZE SUB DUP2 ADD SWAP1 PUSH2 0x148 SWAP2 SWAP1 PUSH2 0xA1E JUMP JUMPDEST PUSH2 0x63D JUMP JUMPDEST PUSH1 0x40 MLOAD PUSH2 0x15A SWAP2 SWAP1 PUSH2 0xDEA JUMP JUMPDEST PUSH1 0x40 MLOAD DUP1 SWAP2 SUB SWAP1 RETURN JUMPDEST PUSH2 0x17D PUSH1 0x4 DUP1 CALLDATASIZE SUB DUP2 ADD SWAP1 PUSH2 0x178 SWAP2 SWAP1 PUSH2 0xD56 JUMP JUMPDEST PUSH2 0x67C JUMP JUMPDEST PUSH1 0x40 MLOAD PUSH2 0x18F SWAP7 SWAP6 SWAP5 SWAP4 SWAP3 SWAP2 SWAP1 PUSH2 0xE05 JUMP JUMPDEST PUSH1 0x40 MLOAD DUP1 SWAP2 SUB SWAP1 RETURN JUMPDEST PUSH2 0x1B2 PUSH1 0x4 DUP1 CALLDATASIZE SUB DUP2 ADD SWAP1 PUSH2 0x1AD SWAP2 SWAP1 PUSH2 0xEAB JUMP JUMPDEST PUSH2 0x740 JUMP JUMPDEST STOP JUMPDEST PUSH1 0x2 DUP2 DUP2 SLOAD DUP2 LT PUSH2 0x1C4 JUMPI PUSH1 0x0 DUP1 REVERT JUMPDEST SWAP1 PUSH1 0x0 MSTORE PUSH1 0x20 PUSH1 0x0 KECCAK256 SWAP1 PUSH1 0x3 MUL ADD PUSH1 0x0 SWAP2 POP SWAP1 POP DUP1 PUSH1 0x0 ADD SLOAD SWAP1 DUP1 PUSH1 0x1 ADD PUSH1 0x0 SWAP1 SLOAD SWAP1 PUSH2 0x100 EXP SWAP1 DIV PUSH20 0xFFFFFFFFFFFFFFFFFFFFFFFFFFFFFFFFFFFFFFFF AND SWAP1 DUP1 PUSH1 0x2 ADD DUP1 SLOAD PUSH2 0x213 SWAP1 PUSH2 0xF1A JUMP JUMPDEST DUP1 PUSH1 0x1F ADD PUSH1 0x20 DUP1 SWAP2 DIV MUL PUSH1 0x20 ADD PUSH1 0x40 MLOAD SWAP1 DUP2 ADD PUSH1 0x40 MSTORE DUP1 SWAP3 SWAP2 SWAP1 DUP2 DUP2 MSTORE PUSH1 0x20 ADD DUP3 DUP1 SLOAD PUSH2 0x23F SWAP1 PUSH2 0xF1A JUMP JUMPDEST DUP1 ISZERO PUSH2 0x28C JUMPI DUP1 PUSH1 0x1F LT PUSH2 0x261 JUMPI PUSH2 0x100 DUP1 DUP4 SLOAD DIV MUL DUP4 MSTORE SWAP2 PUSH1 0x20 ADD SWAP2 PUSH2 0x28C JUMP JUMPDEST DUP3 ADD SWAP2 SWAP1 PUSH1 0x0 MSTORE PUSH1 0x20 PUSH1 0x0 KECCAK256 SWAP1 JUMPDEST DUP2 SLOAD DUP2 MSTORE SWAP1 PUSH1 0x1 ADD SWAP1 PUSH1 0x20 ADD DUP1 DUP4 GT PUSH2 0x26F JUMPI DUP3 SWAP1 SUB PUSH1 0x1F AND DUP3 ADD SWAP2 JUMPDEST POP POP POP POP POP SWAP1 POP DUP4 JUMP JUMPDEST PUSH1 0x40 MLOAD DUP1 PUSH1 0xC0 ADD PUSH1 0x40 MSTORE DUP1 DUP5 DUP2 MSTORE PUSH1 0x20 ADD DUP4 DUP2 MSTORE PUSH1 0x20 ADD DUP6 PUSH20 0xFFFFFFFFFFFFFFFFFFFFFFFFFFFFFFFFFFFFFFFF AND BALANCE DUP2 MSTORE PUSH1 0x20 ADD NUMBER DUP2 MSTORE PUSH1 0x20 ADD DUP3 DUP2 MSTORE PUSH1 0x20 ADD DUP6 PUSH20 0xFFFFFFFFFFFFFFFFFFFFFFFFFFFFFFFFFFFFFFFF AND BALANCE DUP4 PUSH2 0x2F9 SWAP2 SWAP1 PUSH2 0xF7B JUMP JUMPDEST DUP2 MSTORE POP PUSH1 0x0 DUP1 DUP7 PUSH20 0xFFFFFFFFFFFFFFFFFFFFFFFFFFFFFFFFFFFFFFFF AND PUSH20 0xFFFFFFFFFFFFFFFFFFFFFFFFFFFFFFFFFFFFFFFF AND DUP2 MSTORE PUSH1 0x20 ADD SWAP1 DUP2 MSTORE PUSH1 0x20 ADD PUSH1 0x0 KECCAK256 PUSH1 0x0 DUP3 ADD MLOAD DUP2 PUSH1 0x0 ADD SWAP1 DUP1 MLOAD SWAP1 PUSH1 0x20 ADD SWAP1 PUSH2 0x356 SWAP3 SWAP2 SWAP1 PUSH2 0x931 JUMP JUMPDEST POP PUSH1 0x20 DUP3 ADD MLOAD DUP2 PUSH1 0x1 ADD SSTORE PUSH1 0x40 DUP3 ADD MLOAD DUP2 PUSH1 0x2 ADD SSTORE PUSH1 0x60 DUP3 ADD MLOAD DUP2 PUSH1 0x3 ADD SSTORE PUSH1 0x80 DUP3 ADD MLOAD DUP2 PUSH1 0x4 ADD SSTORE PUSH1 0xA0 DUP3 ADD MLOAD DUP2 PUSH1 0x5 ADD SSTORE SWAP1 POP POP PUSH1 0x1 DUP5 SWAP1 DUP1 PUSH1 0x1 DUP2 SLOAD ADD DUP1 DUP3 SSTORE DUP1 SWAP2 POP POP PUSH1 0x1 SWAP1 SUB SWAP1 PUSH1 0x0 MSTORE PUSH1 0x20 PUSH1 0x0 KECCAK256 ADD PUSH1 0x0 SWAP1 SWAP2 SWAP1 SWAP2 SWAP1 SWAP2 PUSH2 0x100 EXP DUP2 SLOAD DUP2 PUSH20 0xFFFFFFFFFFFFFFFFFFFFFFFFFFFFFFFFFFFFFFFF MUL NOT AND SWAP1 DUP4 PUSH20 0xFFFFFFFFFFFFFFFFFFFFFFFFFFFFFFFFFFFFFFFF AND MUL OR SWAP1 SSTORE POP PUSH1 0x2 PUSH1 0x40 MLOAD DUP1 PUSH1 0x60 ADD PUSH1 0x40 MSTORE DUP1 NUMBER DUP2 MSTORE PUSH1 0x20 ADD CALLER PUSH20 0xFFFFFFFFFFFFFFFFFFFFFFFFFFFFFFFFFFFFFFFF AND DUP2 MSTORE PUSH1 0x20 ADD PUSH1 0x40 MLOAD DUP1 PUSH1 0x40 ADD PUSH1 0x40 MSTORE DUP1 PUSH1 0xC DUP2 MSTORE PUSH1 0x20 ADD PUSH32 0x557365722061646465643A200000000000000000000000000000000000000000 DUP2 MSTORE POP DUP2 MSTORE POP SWAP1 DUP1 PUSH1 0x1 DUP2 SLOAD ADD DUP1 DUP3 SSTORE DUP1 SWAP2 POP POP PUSH1 0x1 SWAP1 SUB SWAP1 PUSH1 0x0 MSTORE PUSH1 0x20 PUSH1 0x0 KECCAK256 SWAP1 PUSH1 0x3 MUL ADD PUSH1 0x0 SWAP1 SWAP2 SWAP1 SWAP2 SWAP1 SWAP2 POP PUSH1 0x0 DUP3 ADD MLOAD DUP2 PUSH1 0x0 ADD SSTORE PUSH1 0x20 DUP3 ADD MLOAD DUP2 PUSH1 0x1 ADD PUSH1 0x0 PUSH2 0x100 EXP DUP2 SLOAD DUP2 PUSH20 0xFFFFFFFFFFFFFFFFFFFFFFFFFFFFFFFFFFFFFFFF MUL NOT AND SWAP1 DUP4 PUSH20 0xFFFFFFFFFFFFFFFFFFFFFFFFFFFFFFFFFFFFFFFF AND MUL OR SWAP1 SSTORE POP PUSH1 0x40 DUP3 ADD MLOAD DUP2 PUSH1 0x2 ADD SWAP1 DUP1 MLOAD SWAP1 PUSH1 0x20 ADD SWAP1 PUSH2 0x4ED SWAP3 SWAP2 SWAP1 PUSH2 0x931 JUMP JUMPDEST POP POP POP POP POP POP POP JUMP JUMPDEST PUSH1 0x0 DUP1 PUSH1 0x0 DUP1 DUP5 PUSH20 0xFFFFFFFFFFFFFFFFFFFFFFFFFFFFFFFFFFFFFFFF AND PUSH20 0xFFFFFFFFFFFFFFFFFFFFFFFFFFFFFFFFFFFFFFFF AND DUP2 MSTORE PUSH1 0x20 ADD SWAP1 DUP2 MSTORE PUSH1 0x20 ADD PUSH1 0x0 KECCAK256 SWAP1 POP DUP1 PUSH1 0x5 ADD SLOAD SWAP2 POP POP SWAP2 SWAP1 POP JUMP JUMPDEST PUSH1 0x60 PUSH1 0x0 DUP1 PUSH1 0x0 DUP1 PUSH1 0x0 DUP1 DUP8 PUSH20 0xFFFFFFFFFFFFFFFFFFFFFFFFFFFFFFFFFFFFFFFF AND PUSH20 0xFFFFFFFFFFFFFFFFFFFFFFFFFFFFFFFFFFFFFFFF AND DUP2 MSTORE PUSH1 0x20 ADD SWAP1 DUP2 MSTORE PUSH1 0x20 ADD PUSH1 0x0 KECCAK256 SWAP1 POP DUP1 PUSH1 0x0 ADD DUP2 PUSH1 0x1 ADD SLOAD DUP3 PUSH1 0x2 ADD SLOAD DUP4 PUSH1 0x3 ADD SLOAD DUP4 DUP1 SLOAD PUSH2 0x5AD SWAP1 PUSH2 0xF1A JUMP JUMPDEST DUP1 PUSH1 0x1F ADD PUSH1 0x20 DUP1 SWAP2 DIV MUL PUSH1 0x20 ADD PUSH1 0x40 MLOAD SWAP1 DUP2 ADD PUSH1 0x40 MSTORE DUP1 SWAP3 SWAP2 SWAP1 DUP2 DUP2 MSTORE PUSH1 0x20 ADD DUP3 DUP1 SLOAD PUSH2 0x5D9 SWAP1 PUSH2 0xF1A JUMP JUMPDEST DUP1 ISZERO PUSH2 0x626 JUMPI DUP1 PUSH1 0x1F LT PUSH2 0x5FB JUMPI PUSH2 0x100 DUP1 DUP4 SLOAD DIV MUL DUP4 MSTORE SWAP2 PUSH1 0x20 ADD SWAP2 PUSH2 0x626 JUMP JUMPDEST DUP3 ADD SWAP2 SWAP1 PUSH1 0x0 MSTORE PUSH1 0x20 PUSH1 0x0 KECCAK256 SWAP1 JUMPDEST DUP2 SLOAD DUP2 MSTORE SWAP1 PUSH1 0x1 ADD SWAP1 PUSH1 0x20 ADD DUP1 DUP4 GT PUSH2 0x609 JUMPI DUP3 SWAP1 SUB PUSH1 0x1F AND DUP3 ADD SWAP2 JUMPDEST POP POP POP POP POP SWAP4 POP SWAP5 POP SWAP5 POP SWAP5 POP SWAP5 POP POP SWAP2 SWAP4 POP SWAP2 SWAP4 JUMP JUMPDEST PUSH1 0x1 DUP2 DUP2 SLOAD DUP2 LT PUSH2 0x64D JUMPI PUSH1 0x0 DUP1 REVERT JUMPDEST SWAP1 PUSH1 0x0 MSTORE PUSH1 0x20 PUSH1 0x0 KECCAK256 ADD PUSH1 0x0 SWAP2 POP SLOAD SWAP1 PUSH2 0x100 EXP SWAP1 DIV PUSH20 0xFFFFFFFFFFFFFFFFFFFFFFFFFFFFFFFFFFFFFFFF AND DUP2 JUMP JUMPDEST PUSH1 0x0 PUSH1 0x20 MSTORE DUP1 PUSH1 0x0 MSTORE PUSH1 0x40 PUSH1 0x0 KECCAK256 PUSH1 0x0 SWAP2 POP SWAP1 POP DUP1 PUSH1 0x0 ADD DUP1 SLOAD PUSH2 0x69F SWAP1 PUSH2 0xF1A JUMP JUMPDEST DUP1 PUSH1 0x1F ADD PUSH1 0x20 DUP1 SWAP2 DIV MUL PUSH1 0x20 ADD PUSH1 0x40 MLOAD SWAP1 DUP2 ADD PUSH1 0x40 MSTORE DUP1 SWAP3 SWAP2 SWAP1 DUP2 DUP2 MSTORE PUSH1 0x20 ADD DUP3 DUP1 SLOAD PUSH2 0x6CB SWAP1 PUSH2 0xF1A JUMP JUMPDEST DUP1 ISZERO PUSH2 0x718 JUMPI DUP1 PUSH1 0x1F LT PUSH2 0x6ED JUMPI PUSH2 0x100 DUP1 DUP4 SLOAD DIV MUL DUP4 MSTORE SWAP2 PUSH1 0x20 ADD SWAP2 PUSH2 0x718 JUMP JUMPDEST DUP3 ADD SWAP2 SWAP1 PUSH1 0x0 MSTORE PUSH1 0x20 PUSH1 0x0 KECCAK256 SWAP1 JUMPDEST DUP2 SLOAD DUP2 MSTORE SWAP1 PUSH1 0x1 ADD SWAP1 PUSH1 0x20 ADD DUP1 DUP4 GT PUSH2 0x6FB JUMPI DUP3 SWAP1 SUB PUSH1 0x1F AND DUP3 ADD SWAP2 JUMPDEST POP POP POP POP POP SWAP1 DUP1 PUSH1 0x1 ADD SLOAD SWAP1 DUP1 PUSH1 0x2 ADD SLOAD SWAP1 DUP1 PUSH1 0x3 ADD SLOAD SWAP1 DUP1 PUSH1 0x4 ADD SLOAD SWAP1 DUP1 PUSH1 0x5 ADD SLOAD SWAP1 POP DUP7 JUMP JUMPDEST PUSH1 0x0 DUP1 PUSH1 0x0 CALLER PUSH20 0xFFFFFFFFFFFFFFFFFFFFFFFFFFFFFFFFFFFFFFFF AND PUSH20 0xFFFFFFFFFFFFFFFFFFFFFFFFFFFFFFFFFFFFFFFF AND DUP2 MSTORE PUSH1 0x20 ADD SWAP1 DUP2 MSTORE PUSH1 0x20 ADD PUSH1 0x0 KECCAK256 SWAP1 POP DUP2 DUP2 PUSH1 0x5 ADD SLOAD LT ISZERO PUSH2 0x7C9 JUMPI PUSH1 0x40 MLOAD PUSH32 0x8C379A000000000000000000000000000000000000000000000000000000000 DUP2 MSTORE PUSH1 0x4 ADD PUSH2 0x7C0 SWAP1 PUSH2 0x101D JUMP JUMPDEST PUSH1 0x40 MLOAD DUP1 SWAP2 SUB SWAP1 REVERT JUMPDEST DUP2 DUP2 PUSH1 0x5 ADD PUSH1 0x0 DUP3 DUP3 SLOAD PUSH2 0x7DD SWAP2 SWAP1 PUSH2 0x103D JUMP JUMPDEST SWAP3 POP POP DUP2 SWAP1 SSTORE POP DUP3 PUSH20 0xFFFFFFFFFFFFFFFFFFFFFFFFFFFFFFFFFFFFFFFF AND PUSH2 0x8FC DUP4 SWAP1 DUP2 ISZERO MUL SWAP1 PUSH1 0x40 MLOAD PUSH1 0x0 PUSH1 0x40 MLOAD DUP1 DUP4 SUB DUP2 DUP6 DUP9 DUP9 CALL SWAP4 POP POP POP POP ISZERO DUP1 ISZERO PUSH2 0x82A JUMPI RETURNDATASIZE PUSH1 0x0 DUP1 RETURNDATACOPY RETURNDATASIZE PUSH1 0x0 REVERT JUMPDEST POP PUSH1 0x2 PUSH1 0x40 MLOAD DUP1 PUSH1 0x60 ADD PUSH1 0x40 MSTORE DUP1 NUMBER DUP2 MSTORE PUSH1 0x20 ADD CALLER PUSH20 0xFFFFFFFFFFFFFFFFFFFFFFFFFFFFFFFFFFFFFFFF AND DUP2 MSTORE PUSH1 0x20 ADD PUSH1 0x40 MLOAD DUP1 PUSH1 0x40 ADD PUSH1 0x40 MSTORE DUP1 PUSH1 0x11 DUP2 MSTORE PUSH1 0x20 ADD PUSH32 0x4574686572207472616E73666572726564000000000000000000000000000000 DUP2 MSTORE POP DUP2 MSTORE POP SWAP1 DUP1 PUSH1 0x1 DUP2 SLOAD ADD DUP1 DUP3 SSTORE DUP1 SWAP2 POP POP PUSH1 0x1 SWAP1 SUB SWAP1 PUSH1 0x0 MSTORE PUSH1 0x20 PUSH1 0x0 KECCAK256 SWAP1 PUSH1 0x3 MUL ADD PUSH1 0x0 SWAP1 SWAP2 SWAP1 SWAP2 SWAP1 SWAP2 POP PUSH1 0x0 DUP3 ADD MLOAD DUP2 PUSH1 0x0 ADD SSTORE PUSH1 0x20 DUP3 ADD MLOAD DUP2 PUSH1 0x1 ADD PUSH1 0x0 PUSH2 0x100 EXP DUP2 SLOAD DUP2 PUSH20 0xFFFFFFFFFFFFFFFFFFFFFFFFFFFFFFFFFFFFFFFF MUL NOT AND SWAP1 DUP4 PUSH20 0xFFFFFFFFFFFFFFFFFFFFFFFFFFFFFFFFFFFFFFFF AND MUL OR SWAP1 SSTORE POP PUSH1 0x40 DUP3 ADD MLOAD DUP2 PUSH1 0x2 ADD SWAP1 DUP1 MLOAD SWAP1 PUSH1 0x20 ADD SWAP1 PUSH2 0x929 SWAP3 SWAP2 SWAP1 PUSH2 0x931 JUMP JUMPDEST POP POP POP POP POP POP JUMP JUMPDEST DUP3 DUP1 SLOAD PUSH2 0x93D SWAP1 PUSH2 0xF1A JUMP JUMPDEST SWAP1 PUSH1 0x0 MSTORE PUSH1 0x20 PUSH1 0x0 KECCAK256 SWAP1 PUSH1 0x1F ADD PUSH1 0x20 SWAP1 DIV DUP2 ADD SWAP3 DUP3 PUSH2 0x95F JUMPI PUSH1 0x0 DUP6 SSTORE PUSH2 0x9A6 JUMP JUMPDEST DUP3 PUSH1 0x1F LT PUSH2 0x978 JUMPI DUP1 MLOAD PUSH1 0xFF NOT AND DUP4 DUP1 ADD OR DUP6 SSTORE PUSH2 0x9A6 JUMP JUMPDEST DUP3 DUP1 ADD PUSH1 0x1 ADD DUP6 SSTORE DUP3 ISZERO PUSH2 0x9A6 JUMPI SWAP2 DUP3 ADD JUMPDEST DUP3 DUP2 GT ISZERO PUSH2 0x9A5 JUMPI DUP3 MLOAD DUP3 SSTORE SWAP2 PUSH1 0x20 ADD SWAP2 SWAP1 PUSH1 0x1 ADD SWAP1 PUSH2 0x98A JUMP JUMPDEST JUMPDEST POP SWAP1 POP PUSH2 0x9B3 SWAP2 SWAP1 PUSH2 0x9B7 JUMP JUMPDEST POP SWAP1 JUMP JUMPDEST JUMPDEST DUP1 DUP3 GT ISZERO PUSH2 0x9D0 JUMPI PUSH1 0x0 DUP2 PUSH1 0x0 SWAP1 SSTORE POP PUSH1 0x1 ADD PUSH2 0x9B8 JUMP JUMPDEST POP SWAP1 JUMP JUMPDEST PUSH1 0x0 PUSH1 0x40 MLOAD SWAP1 POP SWAP1 JUMP JUMPDEST PUSH1 0x0 DUP1 REVERT JUMPDEST PUSH1 0x0 DUP1 REVERT JUMPDEST PUSH1 0x0 DUP2 SWAP1 POP SWAP2 SWAP1 POP JUMP JUMPDEST PUSH2 0x9FB DUP2 PUSH2 0x9E8 JUMP JUMPDEST DUP2 EQ PUSH2 0xA06 JUMPI PUSH1 0x0 DUP1 REVERT JUMPDEST POP JUMP JUMPDEST PUSH1 0x0 DUP2 CALLDATALOAD SWAP1 POP PUSH2 0xA18 DUP2 PUSH2 0x9F2 JUMP JUMPDEST SWAP3 SWAP2 POP POP JUMP JUMPDEST PUSH1 0x0 PUSH1 0x20 DUP3 DUP5 SUB SLT ISZERO PUSH2 0xA34 JUMPI PUSH2 0xA33 PUSH2 0x9DE JUMP JUMPDEST JUMPDEST PUSH1 0x0 PUSH2 0xA42 DUP5 DUP3 DUP6 ADD PUSH2 0xA09 JUMP JUMPDEST SWAP2 POP POP SWAP3 SWAP2 POP POP JUMP JUMPDEST PUSH2 0xA54 DUP2 PUSH2 0x9E8 JUMP JUMPDEST DUP3 MSTORE POP POP JUMP JUMPDEST PUSH1 0x0 PUSH20 0xFFFFFFFFFFFFFFFFFFFFFFFFFFFFFFFFFFFFFFFF DUP3 AND SWAP1 POP SWAP2 SWAP1 POP JUMP JUMPDEST PUSH1 0x0 PUSH2 0xA85 DUP3 PUSH2 0xA5A JUMP JUMPDEST SWAP1 POP SWAP2 SWAP1 POP JUMP JUMPDEST PUSH2 0xA95 DUP2 PUSH2 0xA7A JUMP JUMPDEST DUP3 MSTORE POP POP JUMP JUMPDEST PUSH1 0x0 DUP2 MLOAD SWAP1 POP SWAP2 SWAP1 POP JUMP JUMPDEST PUSH1 0x0 DUP3 DUP3 MSTORE PUSH1 0x20 DUP3 ADD SWAP1 POP SWAP3 SWAP2 POP POP JUMP JUMPDEST PUSH1 0x0 JUMPDEST DUP4 DUP2 LT ISZERO PUSH2 0xAD5 JUMPI DUP1 DUP3 ADD MLOAD DUP2 DUP5 ADD MSTORE PUSH1 0x20 DUP2 ADD SWAP1 POP PUSH2 0xABA JUMP JUMPDEST DUP4 DUP2 GT ISZERO PUSH2 0xAE4 JUMPI PUSH1 0x0 DUP5 DUP5 ADD MSTORE JUMPDEST POP POP POP POP JUMP JUMPDEST PUSH1 0x0 PUSH1 0x1F NOT PUSH1 0x1F DUP4 ADD AND SWAP1 POP SWAP2 SWAP1 POP JUMP JUMPDEST PUSH1 0x0 PUSH2 0xB06 DUP3 PUSH2 0xA9B JUMP JUMPDEST PUSH2 0xB10 DUP2 DUP6 PUSH2 0xAA6 JUMP JUMPDEST SWAP4 POP PUSH2 0xB20 DUP2 DUP6 PUSH1 0x20 DUP7 ADD PUSH2 0xAB7 JUMP JUMPDEST PUSH2 0xB29 DUP2 PUSH2 0xAEA JUMP JUMPDEST DUP5 ADD SWAP2 POP POP SWAP3 SWAP2 POP POP JUMP JUMPDEST PUSH1 0x0 PUSH1 0x60 DUP3 ADD SWAP1 POP PUSH2 0xB49 PUSH1 0x0 DUP4 ADD DUP7 PUSH2 0xA4B JUMP JUMPDEST PUSH2 0xB56 PUSH1 0x20 DUP4 ADD DUP6 PUSH2 0xA8C JUMP JUMPDEST DUP2 DUP2 SUB PUSH1 0x40 DUP4 ADD MSTORE PUSH2 0xB68 DUP2 DUP5 PUSH2 0xAFB JUMP JUMPDEST SWAP1 POP SWAP5 SWAP4 POP POP POP POP JUMP JUMPDEST PUSH2 0xB7B DUP2 PUSH2 0xA7A JUMP JUMPDEST DUP2 EQ PUSH2 0xB86 JUMPI PUSH1 0x0 DUP1 REVERT JUMPDEST POP JUMP JUMPDEST PUSH1 0x0 DUP2 CALLDATALOAD SWAP1 POP PUSH2 0xB98 DUP2 PUSH2 0xB72 JUMP JUMPDEST SWAP3 SWAP2 POP POP JUMP JUMPDEST PUSH1 0x0 DUP1 REVERT JUMPDEST PUSH1 0x0 DUP1 REVERT JUMPDEST PUSH32 0x4E487B7100000000000000000000000000000000000000000000000000000000 PUSH1 0x0 MSTORE PUSH1 0x41 PUSH1 0x4 MSTORE PUSH1 0x24 PUSH1 0x0 REVERT JUMPDEST PUSH2 0xBE0 DUP3 PUSH2 0xAEA JUMP JUMPDEST DUP2 ADD DUP2 DUP2 LT PUSH8 0xFFFFFFFFFFFFFFFF DUP3 GT OR ISZERO PUSH2 0xBFF JUMPI PUSH2 0xBFE PUSH2 0xBA8 JUMP JUMPDEST JUMPDEST DUP1 PUSH1 0x40 MSTORE POP POP POP JUMP JUMPDEST PUSH1 0x0 PUSH2 0xC12 PUSH2 0x9D4 JUMP JUMPDEST SWAP1 POP PUSH2 0xC1E DUP3 DUP3 PUSH2 0xBD7 JUMP JUMPDEST SWAP2 SWAP1 POP JUMP JUMPDEST PUSH1 0x0 PUSH8 0xFFFFFFFFFFFFFFFF DUP3 GT ISZERO PUSH2 0xC3E JUMPI PUSH2 0xC3D PUSH2 0xBA8 JUMP JUMPDEST JUMPDEST PUSH2 0xC47 DUP3 PUSH2 0xAEA JUMP JUMPDEST SWAP1 POP PUSH1 0x20 DUP2 ADD SWAP1 POP SWAP2 SWAP1 POP JUMP JUMPDEST DUP3 DUP2 DUP4 CALLDATACOPY PUSH1 0x0 DUP4 DUP4 ADD MSTORE POP POP POP JUMP JUMPDEST PUSH1 0x0 PUSH2 0xC76 PUSH2 0xC71 DUP5 PUSH2 0xC23 JUMP JUMPDEST PUSH2 0xC08 JUMP JUMPDEST SWAP1 POP DUP3 DUP2 MSTORE PUSH1 0x20 DUP2 ADD DUP5 DUP5 DUP5 ADD GT ISZERO PUSH2 0xC92 JUMPI PUSH2 0xC91 PUSH2 0xBA3 JUMP JUMPDEST JUMPDEST PUSH2 0xC9D DUP5 DUP3 DUP6 PUSH2 0xC54 JUMP JUMPDEST POP SWAP4 SWAP3 POP POP POP JUMP JUMPDEST PUSH1 0x0 DUP3 PUSH1 0x1F DUP4 ADD SLT PUSH2 0xCBA JUMPI PUSH2 0xCB9 PUSH2 0xB9E JUMP JUMPDEST JUMPDEST DUP2 CALLDATALOAD PUSH2 0xCCA DUP5 DUP3 PUSH1 0x20 DUP7 ADD PUSH2 0xC63 JUMP JUMPDEST SWAP2 POP POP SWAP3 SWAP2 POP POP JUMP JUMPDEST PUSH1 0x0 DUP1 PUSH1 0x0 DUP1 PUSH1 0x80 DUP6 DUP8 SUB SLT ISZERO PUSH2 0xCED JUMPI PUSH2 0xCEC PUSH2 0x9DE JUMP JUMPDEST JUMPDEST PUSH1 0x0 PUSH2 0xCFB DUP8 DUP3 DUP9 ADD PUSH2 0xB89 JUMP JUMPDEST SWAP5 POP POP PUSH1 0x20 DUP6 ADD CALLDATALOAD PUSH8 0xFFFFFFFFFFFFFFFF DUP2 GT ISZERO PUSH2 0xD1C JUMPI PUSH2 0xD1B PUSH2 0x9E3 JUMP JUMPDEST JUMPDEST PUSH2 0xD28 DUP8 DUP3 DUP9 ADD PUSH2 0xCA5 JUMP JUMPDEST SWAP4 POP POP PUSH1 0x40 PUSH2 0xD39 DUP8 DUP3 DUP9 ADD PUSH2 0xA09 JUMP JUMPDEST SWAP3 POP POP PUSH1 0x60 PUSH2 0xD4A DUP8 DUP3 DUP9 ADD PUSH2 0xA09 JUMP JUMPDEST SWAP2 POP POP SWAP3 SWAP6 SWAP2 SWAP5 POP SWAP3 POP JUMP JUMPDEST PUSH1 0x0 PUSH1 0x20 DUP3 DUP5 SUB SLT ISZERO PUSH2 0xD6C JUMPI PUSH2 0xD6B PUSH2 0x9DE JUMP JUMPDEST JUMPDEST PUSH1 0x0 PUSH2 0xD7A DUP5 DUP3 DUP6 ADD PUSH2 0xB89 JUMP JUMPDEST SWAP2 POP POP SWAP3 SWAP2 POP POP JUMP JUMPDEST PUSH1 0x0 PUSH1 0x20 DUP3 ADD SWAP1 POP PUSH2 0xD98 PUSH1 0x0 DUP4 ADD DUP5 PUSH2 0xA4B JUMP JUMPDEST SWAP3 SWAP2 POP POP JUMP JUMPDEST PUSH1 0x0 PUSH1 0x80 DUP3 ADD SWAP1 POP DUP2 DUP2 SUB PUSH1 0x0 DUP4 ADD MSTORE PUSH2 0xDB8 DUP2 DUP8 PUSH2 0xAFB JUMP JUMPDEST SWAP1 POP PUSH2 0xDC7 PUSH1 0x20 DUP4 ADD DUP7 PUSH2 0xA4B JUMP JUMPDEST PUSH2 0xDD4 PUSH1 0x40 DUP4 ADD DUP6 PUSH2 0xA4B JUMP JUMPDEST PUSH2 0xDE1 PUSH1 0x60 DUP4 ADD DUP5 PUSH2 0xA4B JUMP JUMPDEST SWAP6 SWAP5 POP POP POP POP POP JUMP JUMPDEST PUSH1 0x0 PUSH1 0x20 DUP3 ADD SWAP1 POP PUSH2 0xDFF PUSH1 0x0 DUP4 ADD DUP5 PUSH2 0xA8C JUMP JUMPDEST SWAP3 SWAP2 POP POP JUMP JUMPDEST PUSH1 0x0 PUSH1 0xC0 DUP3 ADD SWAP1 POP DUP2 DUP2 SUB PUSH1 0x0 DUP4 ADD MSTORE PUSH2 0xE1F DUP2 DUP10 PUSH2 0xAFB JUMP JUMPDEST SWAP1 POP PUSH2 0xE2E PUSH1 0x20 DUP4 ADD DUP9 PUSH2 0xA4B JUMP JUMPDEST PUSH2 0xE3B PUSH1 0x40 DUP4 ADD DUP8 PUSH2 0xA4B JUMP JUMPDEST PUSH2 0xE48 PUSH1 0x60 DUP4 ADD DUP7 PUSH2 0xA4B JUMP JUMPDEST PUSH2 0xE55 PUSH1 0x80 DUP4 ADD DUP6 PUSH2 0xA4B JUMP JUMPDEST PUSH2 0xE62 PUSH1 0xA0 DUP4 ADD DUP5 PUSH2 0xA4B JUMP JUMPDEST SWAP8 SWAP7 POP POP POP POP POP POP POP JUMP JUMPDEST PUSH1 0x0 PUSH2 0xE78 DUP3 PUSH2 0xA5A JUMP JUMPDEST SWAP1 POP SWAP2 SWAP1 POP JUMP JUMPDEST PUSH2 0xE88 DUP2 PUSH2 0xE6D JUMP JUMPDEST DUP2 EQ PUSH2 0xE93 JUMPI PUSH1 0x0 DUP1 REVERT JUMPDEST POP JUMP JUMPDEST PUSH1 0x0 DUP2 CALLDATALOAD SWAP1 POP PUSH2 0xEA5 DUP2 PUSH2 0xE7F JUMP JUMPDEST SWAP3 SWAP2 POP POP JUMP JUMPDEST PUSH1 0x0 DUP1 PUSH1 0x40 DUP4 DUP6 SUB SLT ISZERO PUSH2 0xEC2 JUMPI PUSH2 0xEC1 PUSH2 0x9DE JUMP JUMPDEST JUMPDEST PUSH1 0x0 PUSH2 0xED0 DUP6 DUP3 DUP7 ADD PUSH2 0xE96 JUMP JUMPDEST SWAP3 POP POP PUSH1 0x20 PUSH2 0xEE1 DUP6 DUP3 DUP7 ADD PUSH2 0xA09 JUMP JUMPDEST SWAP2 POP POP SWAP3 POP SWAP3 SWAP1 POP JUMP JUMPDEST PUSH32 0x4E487B7100000000000000000000000000000000000000000000000000000000 PUSH1 0x0 MSTORE PUSH1 0x22 PUSH1 0x4 MSTORE PUSH1 0x24 PUSH1 0x0 REVERT JUMPDEST PUSH1 0x0 PUSH1 0x2 DUP3 DIV SWAP1 POP PUSH1 0x1 DUP3 AND DUP1 PUSH2 0xF32 JUMPI PUSH1 0x7F DUP3 AND SWAP2 POP JUMPDEST PUSH1 0x20 DUP3 LT DUP2 EQ ISZERO PUSH2 0xF46 JUMPI PUSH2 0xF45 PUSH2 0xEEB JUMP JUMPDEST JUMPDEST POP SWAP2 SWAP1 POP JUMP JUMPDEST PUSH32 0x4E487B7100000000000000000000000000000000000000000000000000000000 PUSH1 0x0 MSTORE PUSH1 0x11 PUSH1 0x4 MSTORE PUSH1 0x24 PUSH1 0x0 REVERT JUMPDEST PUSH1 0x0 PUSH2 0xF86 DUP3 PUSH2 0x9E8 JUMP JUMPDEST SWAP2 POP PUSH2 0xF91 DUP4 PUSH2 0x9E8 JUMP JUMPDEST SWAP3 POP DUP3 PUSH32 0xFFFFFFFFFFFFFFFFFFFFFFFFFFFFFFFFFFFFFFFFFFFFFFFFFFFFFFFFFFFFFFFF SUB DUP3 GT ISZERO PUSH2 0xFC6 JUMPI PUSH2 0xFC5 PUSH2 0xF4C JUMP JUMPDEST JUMPDEST DUP3 DUP3 ADD SWAP1 POP SWAP3 SWAP2 POP POP JUMP JUMPDEST PUSH32 0x496E73756666696369656E742062616C616E63652E0000000000000000000000 PUSH1 0x0 DUP3 ADD MSTORE POP JUMP JUMPDEST PUSH1 0x0 PUSH2 0x1007 PUSH1 0x15 DUP4 PUSH2 0xAA6 JUMP JUMPDEST SWAP2 POP PUSH2 0x1012 DUP3 PUSH2 0xFD1 JUMP JUMPDEST PUSH1 0x20 DUP3 ADD SWAP1 POP SWAP2 SWAP1 POP JUMP JUMPDEST PUSH1 0x0 PUSH1 0x20 DUP3 ADD SWAP1 POP DUP2 DUP2 SUB PUSH1 0x0 DUP4 ADD MSTORE PUSH2 0x1036 DUP2 PUSH2 0xFFA JUMP JUMPDEST SWAP1 POP SWAP2 SWAP1 POP JUMP JUMPDEST PUSH1 0x0 PUSH2 0x1048 DUP3 PUSH2 0x9E8 JUMP JUMPDEST SWAP2 POP PUSH2 0x1053 DUP4 PUSH2 0x9E8 JUMP JUMPDEST SWAP3 POP DUP3 DUP3 LT ISZERO PUSH2 0x1066 JUMPI PUSH2 0x1065 PUSH2 0xF4C JUMP JUMPDEST JUMPDEST DUP3 DUP3 SUB SWAP1 POP SWAP3 SWAP2 POP POP JUMP INVALID LOG2 PUSH5 0x6970667358 0x22 SLT KECCAK256 POP 0xDE PUSH11 0xA0F7D2AC05DDFEB600E224 0xE3 0xB7 0x24 0x2E 0xDD 0xBE BASEFEE 0xE5 RETURN 0xB5 0xBE CALLDATASIZE SHL DUP16 LT 0xC DIFFICULTY 0xB9 PUSH5 0x736F6C6343 STOP ADDMOD MULMOD STOP CALLER "},"methodIdentifiers":{"activities(uint256)":"0d1657e8","addUser(address,string,uint256,uint256)":"10c234b8","getCurrentValue(address)":"422f764d","getUser(address)":"6f77926b","transfer(address,uint256)":"a9059cbb","users(address)":"a87430ba","usersAdded(uint256)":"819a9edd"}}}}}