{
  "_format": "hh-sol-artifact-1",
  "contractName": "Assetmgt",
  "sourceName": "contracts/Assetmgt.sol",
  "abi": [
    {
      "inputs": [
        {
          "internalType": "uint256",
          "name": "",
          "type": "uint256"
        }
      ],
      "name": "activities",
      "outputs": [
        {
          "internalType": "uint256",
          "name": "blockNum",
          "type": "uint256"
        },
        {
          "internalType": "address",
          "name": "caller",
          "type": "address"
        },
        {
          "internalType": "string",
          "name": "description",
          "type": "string"
        }
      ],
      "stateMutability": "view",
      "type": "function"
    },
    {
      "inputs": [
        {
          "internalType": "address",
          "name": "userAddress",
          "type": "address"
        },
        {
          "internalType": "string",
          "name": "userName",
          "type": "string"
        },
        {
          "internalType": "uint256",
          "name": "userInitialValue",
          "type": "uint256"
        }
      ],
      "name": "addUser",
      "outputs": [],
      "stateMutability": "nonpayable",
      "type": "function"
    },
    {
      "inputs": [
        {
          "internalType": "address",
          "name": "userAddress",
          "type": "address"
        }
      ],
      "name": "getCurrentValue",
      "outputs": [
        {
          "internalType": "uint256",
          "name": "",
          "type": "uint256"
        }
      ],
      "stateMutability": "view",
      "type": "function"
    },
    {
      "inputs": [
        {
          "internalType": "address",
          "name": "userAddress",
          "type": "address"
        }
      ],
      "name": "getUser",
      "outputs": [
        {
          "internalType": "string",
          "name": "",
          "type": "string"
        },
        {
          "internalType": "uint256",
          "name": "",
          "type": "uint256"
        },
        {
          "internalType": "uint256",
          "name": "",
          "type": "uint256"
        }
      ],
      "stateMutability": "view",
      "type": "function"
    },
    {
      "inputs": [
        {
          "internalType": "address payable",
          "name": "recipient",
          "type": "address"
        },
        {
          "internalType": "uint256",
          "name": "amount",
          "type": "uint256"
        }
      ],
      "name": "transfer",
      "outputs": [],
      "stateMutability": "nonpayable",
      "type": "function"
    },
    {
      "inputs": [
        {
          "internalType": "address",
          "name": "",
          "type": "address"
        }
      ],
      "name": "users",
      "outputs": [
        {
          "internalType": "string",
          "name": "name",
          "type": "string"
        },
        {
          "internalType": "uint256",
          "name": "balance",
          "type": "uint256"
        },
        {
          "internalType": "uint256",
          "name": "created",
          "type": "uint256"
        },
        {
          "internalType": "uint256",
          "name": "initialValue",
          "type": "uint256"
        },
        {
          "internalType": "uint256",
          "name": "currentValue",
          "type": "uint256"
        }
      ],
      "stateMutability": "view",
      "type": "function"
    },
    {
      "inputs": [
        {
          "internalType": "uint256",
          "name": "",
          "type": "uint256"
        }
      ],
      "name": "usersAdded",
      "outputs": [
        {
          "internalType": "address",
          "name": "",
          "type": "address"
        }
      ],
      "stateMutability": "view",
      "type": "function"
    }
  ],
  "bytecode": "0x608060405234801561001057600080fd5b50611056806100206000396000f3fe608060405234801561001057600080fd5b506004361061007d5760003560e01c8063819a9edd1161005b578063819a9edd14610116578063a87430ba14610146578063a9059cbb1461017a578063f0384fb6146101965761007d565b80630d1657e814610082578063422f764d146100b45780636f77926b146100e4575b600080fd5b61009c600480360381019061009791906109fd565b6101b2565b6040516100ab93929190610b13565b60405180910390f35b6100ce60048036038101906100c99190610b7d565b610294565b6040516100db9190610baa565b60405180910390f35b6100fe60048036038101906100f99190610b7d565b6102e4565b60405161010d93929190610bc5565b60405180910390f35b610130600480360381019061012b91906109fd565b6103d3565b60405161013d9190610c03565b60405180910390f35b610160600480360381019061015b9190610b7d565b610412565b604051610171959493929190610c1e565b60405180910390f35b610194600480360381019061018f9190610cb6565b6104d0565b005b6101b060048036038101906101ab9190610e2b565b6106c1565b005b600281815481106101c257600080fd5b90600052602060002090600302016000915090508060000154908060010160009054906101000a900473ffffffffffffffffffffffffffffffffffffffff169080600201805461021190610ec9565b80601f016020809104026020016040519081016040528092919081815260200182805461023d90610ec9565b801561028a5780601f1061025f5761010080835404028352916020019161028a565b820191906000526020600020905b81548152906001019060200180831161026d57829003601f168201915b5050505050905083565b6000806000808473ffffffffffffffffffffffffffffffffffffffff1673ffffffffffffffffffffffffffffffffffffffff16815260200190815260200160002090508060040154915050919050565b606060008060008060008673ffffffffffffffffffffffffffffffffffffffff1673ffffffffffffffffffffffffffffffffffffffff1681526020019081526020016000209050806000018160010154826002015482805461034590610ec9565b80601f016020809104026020016040519081016040528092919081815260200182805461037190610ec9565b80156103be5780601f10610393576101008083540402835291602001916103be565b820191906000526020600020905b8154815290600101906020018083116103a157829003601f168201915b50505050509250935093509350509193909250565b600181815481106103e357600080fd5b906000526020600020016000915054906101000a900473ffffffffffffffffffffffffffffffffffffffff1681565b600060205280600052604060002060009150905080600001805461043590610ec9565b80601f016020809104026020016040519081016040528092919081815260200182805461046190610ec9565b80156104ae5780601f10610483576101008083540402835291602001916104ae565b820191906000526020600020905b81548152906001019060200180831161049157829003601f168201915b5050505050908060010154908060020154908060030154908060040154905085565b60008060003373ffffffffffffffffffffffffffffffffffffffff1673ffffffffffffffffffffffffffffffffffffffff16815260200190815260200160002090508181600401541015610559576040517f08c379a000000000000000000000000000000000000000000000000000000000815260040161055090610f47565b60405180910390fd5b8181600401600082825461056d9190610f96565b925050819055508273ffffffffffffffffffffffffffffffffffffffff166108fc839081150290604051600060405180830381858888f193505050501580156105ba573d6000803e3d6000fd5b50600260405180606001604052804381526020013373ffffffffffffffffffffffffffffffffffffffff1681526020016040518060400160405280601181526020017f4574686572207472616e7366657272656400000000000000000000000000000081525081525090806001815401808255809150506001900390600052602060002090600302016000909190919091506000820151816000015560208201518160010160006101000a81548173ffffffffffffffffffffffffffffffffffffffff021916908373ffffffffffffffffffffffffffffffffffffffff16021790555060408201518160020190805190602001906106b9929190610910565b505050505050565b6040518060a001604052808381526020018473ffffffffffffffffffffffffffffffffffffffff163181526020014381526020018281526020018473ffffffffffffffffffffffffffffffffffffffff16318361071e9190610fca565b8152506000808573ffffffffffffffffffffffffffffffffffffffff1673ffffffffffffffffffffffffffffffffffffffff168152602001908152602001600020600082015181600001908051906020019061077b929190610910565b50602082015181600101556040820151816002015560608201518160030155608082015181600401559050506001839080600181540180825580915050600190039060005260206000200160009091909190916101000a81548173ffffffffffffffffffffffffffffffffffffffff021916908373ffffffffffffffffffffffffffffffffffffffff160217905550600260405180606001604052804381526020013373ffffffffffffffffffffffffffffffffffffffff1681526020016040518060400160405280600c81526020017f557365722061646465643a20000000000000000000000000000000000000000081525081525090806001815401808255809150506001900390600052602060002090600302016000909190919091506000820151816000015560208201518160010160006101000a81548173ffffffffffffffffffffffffffffffffffffffff021916908373ffffffffffffffffffffffffffffffffffffffff1602179055506040820151816002019080519060200190610908929190610910565b505050505050565b82805461091c90610ec9565b90600052602060002090601f01602090048101928261093e5760008555610985565b82601f1061095757805160ff1916838001178555610985565b82800160010185558215610985579182015b82811115610984578251825591602001919060010190610969565b5b5090506109929190610996565b5090565b5b808211156109af576000816000905550600101610997565b5090565b6000604051905090565b600080fd5b600080fd5b6000819050919050565b6109da816109c7565b81146109e557600080fd5b50565b6000813590506109f7816109d1565b92915050565b600060208284031215610a1357610a126109bd565b5b6000610a21848285016109e8565b91505092915050565b610a33816109c7565b82525050565b600073ffffffffffffffffffffffffffffffffffffffff82169050919050565b6000610a6482610a39565b9050919050565b610a7481610a59565b82525050565b600081519050919050565b600082825260208201905092915050565b60005b83811015610ab4578082015181840152602081019050610a99565b83811115610ac3576000848401525b50505050565b6000601f19601f8301169050919050565b6000610ae582610a7a565b610aef8185610a85565b9350610aff818560208601610a96565b610b0881610ac9565b840191505092915050565b6000606082019050610b286000830186610a2a565b610b356020830185610a6b565b8181036040830152610b478184610ada565b9050949350505050565b610b5a81610a59565b8114610b6557600080fd5b50565b600081359050610b7781610b51565b92915050565b600060208284031215610b9357610b926109bd565b5b6000610ba184828501610b68565b91505092915050565b6000602082019050610bbf6000830184610a2a565b92915050565b60006060820190508181036000830152610bdf8186610ada565b9050610bee6020830185610a2a565b610bfb6040830184610a2a565b949350505050565b6000602082019050610c186000830184610a6b565b92915050565b600060a0820190508181036000830152610c388188610ada565b9050610c476020830187610a2a565b610c546040830186610a2a565b610c616060830185610a2a565b610c6e6080830184610a2a565b9695505050505050565b6000610c8382610a39565b9050919050565b610c9381610c78565b8114610c9e57600080fd5b50565b600081359050610cb081610c8a565b92915050565b60008060408385031215610ccd57610ccc6109bd565b5b6000610cdb85828601610ca1565b9250506020610cec858286016109e8565b9150509250929050565b600080fd5b600080fd5b7f4e487b7100000000000000000000000000000000000000000000000000000000600052604160045260246000fd5b610d3882610ac9565b810181811067ffffffffffffffff82111715610d5757610d56610d00565b5b80604052505050565b6000610d6a6109b3565b9050610d768282610d2f565b919050565b600067ffffffffffffffff821115610d9657610d95610d00565b5b610d9f82610ac9565b9050602081019050919050565b82818337600083830152505050565b6000610dce610dc984610d7b565b610d60565b905082815260208101848484011115610dea57610de9610cfb565b5b610df5848285610dac565b509392505050565b600082601f830112610e1257610e11610cf6565b5b8135610e22848260208601610dbb565b91505092915050565b600080600060608486031215610e4457610e436109bd565b5b6000610e5286828701610b68565b935050602084013567ffffffffffffffff811115610e7357610e726109c2565b5b610e7f86828701610dfd565b9250506040610e90868287016109e8565b9150509250925092565b7f4e487b7100000000000000000000000000000000000000000000000000000000600052602260045260246000fd5b60006002820490506001821680610ee157607f821691505b60208210811415610ef557610ef4610e9a565b5b50919050565b7f496e73756666696369656e742062616c616e63652e0000000000000000000000600082015250565b6000610f31601583610a85565b9150610f3c82610efb565b602082019050919050565b60006020820190508181036000830152610f6081610f24565b9050919050565b7f4e487b7100000000000000000000000000000000000000000000000000000000600052601160045260246000fd5b6000610fa1826109c7565b9150610fac836109c7565b925082821015610fbf57610fbe610f67565b5b828203905092915050565b6000610fd5826109c7565b9150610fe0836109c7565b9250827fffffffffffffffffffffffffffffffffffffffffffffffffffffffffffffffff0382111561101557611014610f67565b5b82820190509291505056fea2646970667358221220a9ebc1e0b4c5744d285c9a6dbc308abab06fc28c3679020d26bb5d5a2b6cbe5a64736f6c63430008090033",
  "linkReferences": {},
  "deployedLinkReferences": {}
}