{
  "_format": "hh-sol-artifact-1",
  "contractName": "Assetmgt",
  "sourceName": "contracts/Assetmgt.sol",
  "abi": [
    {
      "inputs": [
        {
          "internalType": "uint256",
          "name": "",
          "type": "uint256"
        }
      ],
      "name": "activities",
      "outputs": [
        {
          "internalType": "uint256",
          "name": "blockNum",
          "type": "uint256"
        },
        {
          "internalType": "address",
          "name": "caller",
          "type": "address"
        },
        {
          "internalType": "string",
          "name": "description",
          "type": "string"
        }
      ],
      "stateMutability": "view",
      "type": "function"
    },
    {
      "inputs": [
        {
          "internalType": "address",
          "name": "userAddress",
          "type": "address"
        },
        {
          "internalType": "string",
          "name": "userName",
          "type": "string"
        },
        {
          "internalType": "uint256",
          "name": "userAge",
          "type": "uint256"
        },
        {
          "internalType": "uint256",
          "name": "userInitialValue",
          "type": "uint256"
        }
      ],
      "name": "addUser",
      "outputs": [],
      "stateMutability": "nonpayable",
      "type": "function"
    },
    {
      "inputs": [
        {
          "internalType": "address",
          "name": "userAddress",
          "type": "address"
        }
      ],
      "name": "getCurrentValue",
      "outputs": [
        {
          "internalType": "uint256",
          "name": "",
          "type": "uint256"
        }
      ],
      "stateMutability": "view",
      "type": "function"
    },
    {
      "inputs": [
        {
          "internalType": "address",
          "name": "userAddress",
          "type": "address"
        }
      ],
      "name": "getUser",
      "outputs": [
        {
          "internalType": "string",
          "name": "",
          "type": "string"
        },
        {
          "internalType": "uint256",
          "name": "",
          "type": "uint256"
        },
        {
          "internalType": "uint256",
          "name": "",
          "type": "uint256"
        },
        {
          "internalType": "uint256",
          "name": "",
          "type": "uint256"
        }
      ],
      "stateMutability": "view",
      "type": "function"
    },
    {
      "inputs": [
        {
          "internalType": "address payable",
          "name": "recipient",
          "type": "address"
        },
        {
          "internalType": "uint256",
          "name": "amount",
          "type": "uint256"
        }
      ],
      "name": "transfer",
      "outputs": [],
      "stateMutability": "nonpayable",
      "type": "function"
    },
    {
      "inputs": [
        {
          "internalType": "address",
          "name": "",
          "type": "address"
        }
      ],
      "name": "users",
      "outputs": [
        {
          "internalType": "string",
          "name": "name",
          "type": "string"
        },
        {
          "internalType": "uint256",
          "name": "age",
          "type": "uint256"
        },
        {
          "internalType": "uint256",
          "name": "balance",
          "type": "uint256"
        },
        {
          "internalType": "uint256",
          "name": "created",
          "type": "uint256"
        },
        {
          "internalType": "uint256",
          "name": "initialValue",
          "type": "uint256"
        },
        {
          "internalType": "uint256",
          "name": "currentValue",
          "type": "uint256"
        }
      ],
      "stateMutability": "view",
      "type": "function"
    },
    {
      "inputs": [
        {
          "internalType": "uint256",
          "name": "",
          "type": "uint256"
        }
      ],
      "name": "usersAdded",
      "outputs": [
        {
          "internalType": "address",
          "name": "",
          "type": "address"
        }
      ],
      "stateMutability": "view",
      "type": "function"
    }
  ],
  "bytecode": "0x608060405234801561001057600080fd5b506110a7806100206000396000f3fe608060405234801561001057600080fd5b506004361061007d5760003560e01c80636f77926b1161005b5780636f77926b14610100578063819a9edd14610133578063a87430ba14610163578063a9059cbb146101985761007d565b80630d1657e81461008257806310c234b8146100b4578063422f764d146100d0575b600080fd5b61009c60048036038101906100979190610a1e565b6101b4565b6040516100ab93929190610b34565b60405180910390f35b6100ce60048036038101906100c99190610cd3565b610296565b005b6100ea60048036038101906100e59190610d56565b6104f6565b6040516100f79190610d83565b60405180910390f35b61011a60048036038101906101159190610d56565b610546565b60405161012a9493929190610d9e565b60405180910390f35b61014d60048036038101906101489190610a1e565b61063d565b60405161015a9190610dea565b60405180910390f35b61017d60048036038101906101789190610d56565b61067c565b60405161018f96959493929190610e05565b60405180910390f35b6101b260048036038101906101ad9190610eab565b610740565b005b600281815481106101c457600080fd5b90600052602060002090600302016000915090508060000154908060010160009054906101000a900473ffffffffffffffffffffffffffffffffffffffff169080600201805461021390610f1a565b80601f016020809104026020016040519081016040528092919081815260200182805461023f90610f1a565b801561028c5780601f106102615761010080835404028352916020019161028c565b820191906000526020600020905b81548152906001019060200180831161026f57829003601f168201915b5050505050905083565b6040518060c001604052808481526020018381526020018573ffffffffffffffffffffffffffffffffffffffff163181526020014381526020018281526020018573ffffffffffffffffffffffffffffffffffffffff1631836102f99190610f7b565b8152506000808673ffffffffffffffffffffffffffffffffffffffff1673ffffffffffffffffffffffffffffffffffffffff1681526020019081526020016000206000820151816000019080519060200190610356929190610931565b506020820151816001015560408201518160020155606082015181600301556080820151816004015560a082015181600501559050506001849080600181540180825580915050600190039060005260206000200160009091909190916101000a81548173ffffffffffffffffffffffffffffffffffffffff021916908373ffffffffffffffffffffffffffffffffffffffff160217905550600260405180606001604052804381526020013373ffffffffffffffffffffffffffffffffffffffff1681526020016040518060400160405280600c81526020017f557365722061646465643a20000000000000000000000000000000000000000081525081525090806001815401808255809150506001900390600052602060002090600302016000909190919091506000820151816000015560208201518160010160006101000a81548173ffffffffffffffffffffffffffffffffffffffff021916908373ffffffffffffffffffffffffffffffffffffffff16021790555060408201518160020190805190602001906104ed929190610931565b50505050505050565b6000806000808473ffffffffffffffffffffffffffffffffffffffff1673ffffffffffffffffffffffffffffffffffffffff16815260200190815260200160002090508060050154915050919050565b60606000806000806000808773ffffffffffffffffffffffffffffffffffffffff1673ffffffffffffffffffffffffffffffffffffffff1681526020019081526020016000209050806000018160010154826002015483600301548380546105ad90610f1a565b80601f01602080910402602001604051908101604052809291908181526020018280546105d990610f1a565b80156106265780601f106105fb57610100808354040283529160200191610626565b820191906000526020600020905b81548152906001019060200180831161060957829003601f168201915b505050505093509450945094509450509193509193565b6001818154811061064d57600080fd5b906000526020600020016000915054906101000a900473ffffffffffffffffffffffffffffffffffffffff1681565b600060205280600052604060002060009150905080600001805461069f90610f1a565b80601f01602080910402602001604051908101604052809291908181526020018280546106cb90610f1a565b80156107185780601f106106ed57610100808354040283529160200191610718565b820191906000526020600020905b8154815290600101906020018083116106fb57829003601f168201915b5050505050908060010154908060020154908060030154908060040154908060050154905086565b60008060003373ffffffffffffffffffffffffffffffffffffffff1673ffffffffffffffffffffffffffffffffffffffff168152602001908152602001600020905081816005015410156107c9576040517f08c379a00000000000000000000000000000000000000000000000000000000081526004016107c09061101d565b60405180910390fd5b818160050160008282546107dd919061103d565b925050819055508273ffffffffffffffffffffffffffffffffffffffff166108fc839081150290604051600060405180830381858888f1935050505015801561082a573d6000803e3d6000fd5b50600260405180606001604052804381526020013373ffffffffffffffffffffffffffffffffffffffff1681526020016040518060400160405280601181526020017f4574686572207472616e7366657272656400000000000000000000000000000081525081525090806001815401808255809150506001900390600052602060002090600302016000909190919091506000820151816000015560208201518160010160006101000a81548173ffffffffffffffffffffffffffffffffffffffff021916908373ffffffffffffffffffffffffffffffffffffffff1602179055506040820151816002019080519060200190610929929190610931565b505050505050565b82805461093d90610f1a565b90600052602060002090601f01602090048101928261095f57600085556109a6565b82601f1061097857805160ff19168380011785556109a6565b828001600101855582156109a6579182015b828111156109a557825182559160200191906001019061098a565b5b5090506109b391906109b7565b5090565b5b808211156109d05760008160009055506001016109b8565b5090565b6000604051905090565b600080fd5b600080fd5b6000819050919050565b6109fb816109e8565b8114610a0657600080fd5b50565b600081359050610a18816109f2565b92915050565b600060208284031215610a3457610a336109de565b5b6000610a4284828501610a09565b91505092915050565b610a54816109e8565b82525050565b600073ffffffffffffffffffffffffffffffffffffffff82169050919050565b6000610a8582610a5a565b9050919050565b610a9581610a7a565b82525050565b600081519050919050565b600082825260208201905092915050565b60005b83811015610ad5578082015181840152602081019050610aba565b83811115610ae4576000848401525b50505050565b6000601f19601f8301169050919050565b6000610b0682610a9b565b610b108185610aa6565b9350610b20818560208601610ab7565b610b2981610aea565b840191505092915050565b6000606082019050610b496000830186610a4b565b610b566020830185610a8c565b8181036040830152610b688184610afb565b9050949350505050565b610b7b81610a7a565b8114610b8657600080fd5b50565b600081359050610b9881610b72565b92915050565b600080fd5b600080fd5b7f4e487b7100000000000000000000000000000000000000000000000000000000600052604160045260246000fd5b610be082610aea565b810181811067ffffffffffffffff82111715610bff57610bfe610ba8565b5b80604052505050565b6000610c126109d4565b9050610c1e8282610bd7565b919050565b600067ffffffffffffffff821115610c3e57610c3d610ba8565b5b610c4782610aea565b9050602081019050919050565b82818337600083830152505050565b6000610c76610c7184610c23565b610c08565b905082815260208101848484011115610c9257610c91610ba3565b5b610c9d848285610c54565b509392505050565b600082601f830112610cba57610cb9610b9e565b5b8135610cca848260208601610c63565b91505092915050565b60008060008060808587031215610ced57610cec6109de565b5b6000610cfb87828801610b89565b945050602085013567ffffffffffffffff811115610d1c57610d1b6109e3565b5b610d2887828801610ca5565b9350506040610d3987828801610a09565b9250506060610d4a87828801610a09565b91505092959194509250565b600060208284031215610d6c57610d6b6109de565b5b6000610d7a84828501610b89565b91505092915050565b6000602082019050610d986000830184610a4b565b92915050565b60006080820190508181036000830152610db88187610afb565b9050610dc76020830186610a4b565b610dd46040830185610a4b565b610de16060830184610a4b565b95945050505050565b6000602082019050610dff6000830184610a8c565b92915050565b600060c0820190508181036000830152610e1f8189610afb565b9050610e2e6020830188610a4b565b610e3b6040830187610a4b565b610e486060830186610a4b565b610e556080830185610a4b565b610e6260a0830184610a4b565b979650505050505050565b6000610e7882610a5a565b9050919050565b610e8881610e6d565b8114610e9357600080fd5b50565b600081359050610ea581610e7f565b92915050565b60008060408385031215610ec257610ec16109de565b5b6000610ed085828601610e96565b9250506020610ee185828601610a09565b9150509250929050565b7f4e487b7100000000000000000000000000000000000000000000000000000000600052602260045260246000fd5b60006002820490506001821680610f3257607f821691505b60208210811415610f4657610f45610eeb565b5b50919050565b7f4e487b7100000000000000000000000000000000000000000000000000000000600052601160045260246000fd5b6000610f86826109e8565b9150610f91836109e8565b9250827fffffffffffffffffffffffffffffffffffffffffffffffffffffffffffffffff03821115610fc657610fc5610f4c565b5b828201905092915050565b7f496e73756666696369656e742062616c616e63652e0000000000000000000000600082015250565b6000611007601583610aa6565b915061101282610fd1565b602082019050919050565b6000602082019050818103600083015261103681610ffa565b9050919050565b6000611048826109e8565b9150611053836109e8565b92508282101561106657611065610f4c565b5b82820390509291505056fea264697066735822122050de6aa0f7d2ac05ddfeb600e224e3b7242eddbe48e5f3b5be361b8f100c44b964736f6c63430008090033",
  "linkReferences": {},
  "deployedLinkReferences": {}
}