{
  "_format": "hh-sol-artifact-1",
  "contractName": "Assetmgt",
  "sourceName": "contracts/Assetmgt.sol",
  "abi": [
    {
      "inputs": [
        {
          "internalType": "uint256",
          "name": "",
          "type": "uint256"
        }
      ],
      "name": "activities",
      "outputs": [
        {
          "internalType": "uint256",
          "name": "blockNum",
          "type": "uint256"
        },
        {
          "internalType": "address",
          "name": "caller",
          "type": "address"
        },
        {
          "internalType": "string",
          "name": "description",
          "type": "string"
        }
      ],
      "stateMutability": "view",
      "type": "function"
    },
    {
      "inputs": [
        {
          "internalType": "address",
          "name": "userAddress",
          "type": "address"
        },
        {
          "internalType": "string",
          "name": "userName",
          "type": "string"
        },
        {
          "internalType": "uint256",
          "name": "userInitialValue",
          "type": "uint256"
        }
      ],
      "name": "addUser",
      "outputs": [],
      "stateMutability": "nonpayable",
      "type": "function"
    },
    {
      "inputs": [
        {
          "internalType": "address",
          "name": "userAddress",
          "type": "address"
        }
      ],
      "name": "getCurrentValue",
      "outputs": [
        {
          "internalType": "uint256[3]",
          "name": "",
          "type": "uint256[3]"
        }
      ],
      "stateMutability": "view",
      "type": "function"
    },
    {
      "inputs": [
        {
          "internalType": "address",
          "name": "userAddress",
          "type": "address"
        }
      ],
      "name": "getUser",
      "outputs": [
        {
          "internalType": "string",
          "name": "",
          "type": "string"
        },
        {
          "internalType": "uint256",
          "name": "",
          "type": "uint256"
        },
        {
          "internalType": "uint256",
          "name": "",
          "type": "uint256"
        }
      ],
      "stateMutability": "view",
      "type": "function"
    },
    {
      "inputs": [
        {
          "internalType": "address payable",
          "name": "recipient",
          "type": "address"
        },
        {
          "internalType": "uint256",
          "name": "amount",
          "type": "uint256"
        }
      ],
      "name": "transfer",
      "outputs": [],
      "stateMutability": "nonpayable",
      "type": "function"
    },
    {
      "inputs": [
        {
          "internalType": "address",
          "name": "",
          "type": "address"
        }
      ],
      "name": "users",
      "outputs": [
        {
          "internalType": "string",
          "name": "name",
          "type": "string"
        },
        {
          "internalType": "uint256",
          "name": "balance",
          "type": "uint256"
        },
        {
          "internalType": "uint256",
          "name": "created",
          "type": "uint256"
        },
        {
          "internalType": "uint256",
          "name": "initialValue",
          "type": "uint256"
        },
        {
          "internalType": "uint256",
          "name": "currentValue",
          "type": "uint256"
        }
      ],
      "stateMutability": "view",
      "type": "function"
    },
    {
      "inputs": [
        {
          "internalType": "uint256",
          "name": "",
          "type": "uint256"
        }
      ],
      "name": "usersAdded",
      "outputs": [
        {
          "internalType": "address",
          "name": "",
          "type": "address"
        }
      ],
      "stateMutability": "view",
      "type": "function"
    }
  ],
  "bytecode": "0x608060405234801561001057600080fd5b5061114c806100206000396000f3fe608060405234801561001057600080fd5b506004361061007d5760003560e01c8063819a9edd1161005b578063819a9edd14610116578063a87430ba14610146578063a9059cbb1461017a578063f0384fb6146101965761007d565b80630d1657e814610082578063422f764d146100b45780636f77926b146100e4575b600080fd5b61009c60048036038101906100979190610a48565b6101b2565b6040516100ab93929190610b5e565b60405180910390f35b6100ce60048036038101906100c99190610bc8565b610294565b6040516100db9190610ca0565b60405180910390f35b6100fe60048036038101906100f99190610bc8565b61030d565b60405161010d93929190610cbb565b60405180910390f35b610130600480360381019061012b9190610a48565b6103fc565b60405161013d9190610cf9565b60405180910390f35b610160600480360381019061015b9190610bc8565b61043b565b604051610171959493929190610d14565b60405180910390f35b610194600480360381019061018f9190610dac565b6104f9565b005b6101b060048036038101906101ab9190610f21565b6106ea565b005b600281815481106101c257600080fd5b90600052602060002090600302016000915090508060000154908060010160009054906101000a900473ffffffffffffffffffffffffffffffffffffffff169080600201805461021190610fbf565b80601f016020809104026020016040519081016040528092919081815260200182805461023d90610fbf565b801561028a5780601f1061025f5761010080835404028352916020019161028a565b820191906000526020600020905b81548152906001019060200180831161026d57829003601f168201915b5050505050905083565b61029c610939565b60008060008473ffffffffffffffffffffffffffffffffffffffff1673ffffffffffffffffffffffffffffffffffffffff1681526020019081526020016000209050604051806060016040528082600301548152602001826001015481526020018260040154815250915050919050565b606060008060008060008673ffffffffffffffffffffffffffffffffffffffff1673ffffffffffffffffffffffffffffffffffffffff1681526020019081526020016000209050806000018160010154826002015482805461036e90610fbf565b80601f016020809104026020016040519081016040528092919081815260200182805461039a90610fbf565b80156103e75780601f106103bc576101008083540402835291602001916103e7565b820191906000526020600020905b8154815290600101906020018083116103ca57829003601f168201915b50505050509250935093509350509193909250565b6001818154811061040c57600080fd5b906000526020600020016000915054906101000a900473ffffffffffffffffffffffffffffffffffffffff1681565b600060205280600052604060002060009150905080600001805461045e90610fbf565b80601f016020809104026020016040519081016040528092919081815260200182805461048a90610fbf565b80156104d75780601f106104ac576101008083540402835291602001916104d7565b820191906000526020600020905b8154815290600101906020018083116104ba57829003601f168201915b5050505050908060010154908060020154908060030154908060040154905085565b60008060003373ffffffffffffffffffffffffffffffffffffffff1673ffffffffffffffffffffffffffffffffffffffff16815260200190815260200160002090508181600401541015610582576040517f08c379a00000000000000000000000000000000000000000000000000000000081526004016105799061103d565b60405180910390fd5b81816004016000828254610596919061108c565b925050819055508273ffffffffffffffffffffffffffffffffffffffff166108fc839081150290604051600060405180830381858888f193505050501580156105e3573d6000803e3d6000fd5b50600260405180606001604052804381526020013373ffffffffffffffffffffffffffffffffffffffff1681526020016040518060400160405280601181526020017f4574686572207472616e7366657272656400000000000000000000000000000081525081525090806001815401808255809150506001900390600052602060002090600302016000909190919091506000820151816000015560208201518160010160006101000a81548173ffffffffffffffffffffffffffffffffffffffff021916908373ffffffffffffffffffffffffffffffffffffffff16021790555060408201518160020190805190602001906106e292919061095b565b505050505050565b6040518060a001604052808381526020018473ffffffffffffffffffffffffffffffffffffffff163181526020014381526020018281526020018473ffffffffffffffffffffffffffffffffffffffff16318361074791906110c0565b8152506000808573ffffffffffffffffffffffffffffffffffffffff1673ffffffffffffffffffffffffffffffffffffffff16815260200190815260200160002060008201518160000190805190602001906107a492919061095b565b50602082015181600101556040820151816002015560608201518160030155608082015181600401559050506001839080600181540180825580915050600190039060005260206000200160009091909190916101000a81548173ffffffffffffffffffffffffffffffffffffffff021916908373ffffffffffffffffffffffffffffffffffffffff160217905550600260405180606001604052804381526020013373ffffffffffffffffffffffffffffffffffffffff1681526020016040518060400160405280600c81526020017f557365722061646465643a20000000000000000000000000000000000000000081525081525090806001815401808255809150506001900390600052602060002090600302016000909190919091506000820151816000015560208201518160010160006101000a81548173ffffffffffffffffffffffffffffffffffffffff021916908373ffffffffffffffffffffffffffffffffffffffff160217905550604082015181600201908051906020019061093192919061095b565b505050505050565b6040518060600160405280600390602082028036833780820191505090505090565b82805461096790610fbf565b90600052602060002090601f01602090048101928261098957600085556109d0565b82601f106109a257805160ff19168380011785556109d0565b828001600101855582156109d0579182015b828111156109cf5782518255916020019190600101906109b4565b5b5090506109dd91906109e1565b5090565b5b808211156109fa5760008160009055506001016109e2565b5090565b6000604051905090565b600080fd5b600080fd5b6000819050919050565b610a2581610a12565b8114610a3057600080fd5b50565b600081359050610a4281610a1c565b92915050565b600060208284031215610a5e57610a5d610a08565b5b6000610a6c84828501610a33565b91505092915050565b610a7e81610a12565b82525050565b600073ffffffffffffffffffffffffffffffffffffffff82169050919050565b6000610aaf82610a84565b9050919050565b610abf81610aa4565b82525050565b600081519050919050565b600082825260208201905092915050565b60005b83811015610aff578082015181840152602081019050610ae4565b83811115610b0e576000848401525b50505050565b6000601f19601f8301169050919050565b6000610b3082610ac5565b610b3a8185610ad0565b9350610b4a818560208601610ae1565b610b5381610b14565b840191505092915050565b6000606082019050610b736000830186610a75565b610b806020830185610ab6565b8181036040830152610b928184610b25565b9050949350505050565b610ba581610aa4565b8114610bb057600080fd5b50565b600081359050610bc281610b9c565b92915050565b600060208284031215610bde57610bdd610a08565b5b6000610bec84828501610bb3565b91505092915050565b600060039050919050565b600081905092915050565b6000819050919050565b610c1e81610a12565b82525050565b6000610c308383610c15565b60208301905092915050565b6000602082019050919050565b610c5281610bf5565b610c5c8184610c00565b9250610c6782610c0b565b8060005b83811015610c98578151610c7f8782610c24565b9650610c8a83610c3c565b925050600181019050610c6b565b505050505050565b6000606082019050610cb56000830184610c49565b92915050565b60006060820190508181036000830152610cd58186610b25565b9050610ce46020830185610a75565b610cf16040830184610a75565b949350505050565b6000602082019050610d0e6000830184610ab6565b92915050565b600060a0820190508181036000830152610d2e8188610b25565b9050610d3d6020830187610a75565b610d4a6040830186610a75565b610d576060830185610a75565b610d646080830184610a75565b9695505050505050565b6000610d7982610a84565b9050919050565b610d8981610d6e565b8114610d9457600080fd5b50565b600081359050610da681610d80565b92915050565b60008060408385031215610dc357610dc2610a08565b5b6000610dd185828601610d97565b9250506020610de285828601610a33565b9150509250929050565b600080fd5b600080fd5b7f4e487b7100000000000000000000000000000000000000000000000000000000600052604160045260246000fd5b610e2e82610b14565b810181811067ffffffffffffffff82111715610e4d57610e4c610df6565b5b80604052505050565b6000610e606109fe565b9050610e6c8282610e25565b919050565b600067ffffffffffffffff821115610e8c57610e8b610df6565b5b610e9582610b14565b9050602081019050919050565b82818337600083830152505050565b6000610ec4610ebf84610e71565b610e56565b905082815260208101848484011115610ee057610edf610df1565b5b610eeb848285610ea2565b509392505050565b600082601f830112610f0857610f07610dec565b5b8135610f18848260208601610eb1565b91505092915050565b600080600060608486031215610f3a57610f39610a08565b5b6000610f4886828701610bb3565b935050602084013567ffffffffffffffff811115610f6957610f68610a0d565b5b610f7586828701610ef3565b9250506040610f8686828701610a33565b9150509250925092565b7f4e487b7100000000000000000000000000000000000000000000000000000000600052602260045260246000fd5b60006002820490506001821680610fd757607f821691505b60208210811415610feb57610fea610f90565b5b50919050565b7f496e73756666696369656e742062616c616e63652e0000000000000000000000600082015250565b6000611027601583610ad0565b915061103282610ff1565b602082019050919050565b600060208201905081810360008301526110568161101a565b9050919050565b7f4e487b7100000000000000000000000000000000000000000000000000000000600052601160045260246000fd5b600061109782610a12565b91506110a283610a12565b9250828210156110b5576110b461105d565b5b828203905092915050565b60006110cb82610a12565b91506110d683610a12565b9250827fffffffffffffffffffffffffffffffffffffffffffffffffffffffffffffffff0382111561110b5761110a61105d565b5b82820190509291505056fea2646970667358221220f5b1db4db094f623f3a56261019e28e9a625d2b0b897664efcca9dd85ba01c4064736f6c63430008090033",
  "linkReferences": {},
  "deployedLinkReferences": {}
}