{"contracts/Assetmgt.sol":{"Assetmgt":{"abi":[{"inputs":[{"internalType":"uint256","name":"","type":"uint256"}],"name":"activities","outputs":[{"internalType":"uint256","name":"blockNum","type":"uint256"},{"internalType":"address","name":"caller","type":"address"},{"internalType":"string","name":"description","type":"string"}],"stateMutability":"view","type":"function"},{"inputs":[{"internalType":"address","name":"userAddress","type":"address"},{"internalType":"string","name":"userName","type":"string"},{"internalType":"uint256","name":"userInitialValue","type":"uint256"}],"name":"addUser","outputs":[],"stateMutability":"nonpayable","type":"function"},{"inputs":[{"internalType":"address","name":"userAddress","type":"address"}],"name":"getCurrentValue","outputs":[{"internalType":"uint256","name":"","type":"uint256"}],"stateMutability":"view","type":"function"},{"inputs":[{"internalType":"address","name":"userAddress","type":"address"}],"name":"getUser","outputs":[{"internalType":"string","name":"","type":"string"},{"internalType":"uint256","name":"","type":"uint256"},{"internalType":"uint256","name":"","type":"uint256"}],"stateMutability":"view","type":"function"},{"inputs":[{"internalType":"address payable","name":"recipient","type":"address"},{"internalType":"uint256","name":"amount","type":"uint256"}],"name":"transfer","outputs":[],"stateMutability":"nonpayable","type":"function"},{"inputs":[{"internalType":"address","name":"","type":"address"}],"name":"users","outputs":[{"internalType":"string","name":"name","type":"string"},{"internalType":"uint256","name":"balance","type":"uint256"},{"internalType":"uint256","name":"created","type":"uint256"},{"internalType":"uint256","name":"initialValue","type":"uint256"},{"internalType":"uint256","name":"currentValue","type":"uint256"}],"stateMutability":"view","type":"function"},{"inputs":[{"internalType":"uint256","name":"","type":"uint256"}],"name":"usersAdded","outputs":[{"internalType":"address","name":"","type":"address"}],"stateMutability":"view","type":"function"}],"evm":{"bytecode":{"linkReferences":{},"object":"608060405234801561001057600080fd5b50611056806100206000396000f3fe608060405234801561001057600080fd5b506004361061007d5760003560e01c8063819a9edd1161005b578063819a9edd14610116578063a87430ba14610146578063a9059cbb1461017a578063f0384fb6146101965761007d565b80630d1657e814610082578063422f764d146100b45780636f77926b146100e4575b600080fd5b61009c600480360381019061009791906109fd565b6101b2565b6040516100ab93929190610b13565b60405180910390f35b6100ce60048036038101906100c99190610b7d565b610294565b6040516100db9190610baa565b60405180910390f35b6100fe60048036038101906100f99190610b7d565b6102e4565b60405161010d93929190610bc5565b60405180910390f35b610130600480360381019061012b91906109fd565b6103d3565b60405161013d9190610c03565b60405180910390f35b610160600480360381019061015b9190610b7d565b610412565b604051610171959493929190610c1e565b60405180910390f35b610194600480360381019061018f9190610cb6565b6104d0565b005b6101b060048036038101906101ab9190610e2b565b6106c1565b005b600281815481106101c257600080fd5b90600052602060002090600302016000915090508060000154908060010160009054906101000a900473ffffffffffffffffffffffffffffffffffffffff169080600201805461021190610ec9565b80601f016020809104026020016040519081016040528092919081815260200182805461023d90610ec9565b801561028a5780601f1061025f5761010080835404028352916020019161028a565b820191906000526020600020905b81548152906001019060200180831161026d57829003601f168201915b5050505050905083565b6000806000808473ffffffffffffffffffffffffffffffffffffffff1673ffffffffffffffffffffffffffffffffffffffff16815260200190815260200160002090508060040154915050919050565b606060008060008060008673ffffffffffffffffffffffffffffffffffffffff1673ffffffffffffffffffffffffffffffffffffffff1681526020019081526020016000209050806000018160010154826002015482805461034590610ec9565b80601f016020809104026020016040519081016040528092919081815260200182805461037190610ec9565b80156103be5780601f10610393576101008083540402835291602001916103be565b820191906000526020600020905b8154815290600101906020018083116103a157829003601f168201915b50505050509250935093509350509193909250565b600181815481106103e357600080fd5b906000526020600020016000915054906101000a900473ffffffffffffffffffffffffffffffffffffffff1681565b600060205280600052604060002060009150905080600001805461043590610ec9565b80601f016020809104026020016040519081016040528092919081815260200182805461046190610ec9565b80156104ae5780601f10610483576101008083540402835291602001916104ae565b820191906000526020600020905b81548152906001019060200180831161049157829003601f168201915b5050505050908060010154908060020154908060030154908060040154905085565b60008060003373ffffffffffffffffffffffffffffffffffffffff1673ffffffffffffffffffffffffffffffffffffffff16815260200190815260200160002090508181600401541015610559576040517f08c379a000000000000000000000000000000000000000000000000000000000815260040161055090610f47565b60405180910390fd5b8181600401600082825461056d9190610f96565b925050819055508273ffffffffffffffffffffffffffffffffffffffff166108fc839081150290604051600060405180830381858888f193505050501580156105ba573d6000803e3d6000fd5b50600260405180606001604052804381526020013373ffffffffffffffffffffffffffffffffffffffff1681526020016040518060400160405280601181526020017f4574686572207472616e7366657272656400000000000000000000000000000081525081525090806001815401808255809150506001900390600052602060002090600302016000909190919091506000820151816000015560208201518160010160006101000a81548173ffffffffffffffffffffffffffffffffffffffff021916908373ffffffffffffffffffffffffffffffffffffffff16021790555060408201518160020190805190602001906106b9929190610910565b505050505050565b6040518060a001604052808381526020018473ffffffffffffffffffffffffffffffffffffffff163181526020014381526020018281526020018473ffffffffffffffffffffffffffffffffffffffff16318361071e9190610fca565b8152506000808573ffffffffffffffffffffffffffffffffffffffff1673ffffffffffffffffffffffffffffffffffffffff168152602001908152602001600020600082015181600001908051906020019061077b929190610910565b50602082015181600101556040820151816002015560608201518160030155608082015181600401559050506001839080600181540180825580915050600190039060005260206000200160009091909190916101000a81548173ffffffffffffffffffffffffffffffffffffffff021916908373ffffffffffffffffffffffffffffffffffffffff160217905550600260405180606001604052804381526020013373ffffffffffffffffffffffffffffffffffffffff1681526020016040518060400160405280600c81526020017f557365722061646465643a20000000000000000000000000000000000000000081525081525090806001815401808255809150506001900390600052602060002090600302016000909190919091506000820151816000015560208201518160010160006101000a81548173ffffffffffffffffffffffffffffffffffffffff021916908373ffffffffffffffffffffffffffffffffffffffff1602179055506040820151816002019080519060200190610908929190610910565b505050505050565b82805461091c90610ec9565b90600052602060002090601f01602090048101928261093e5760008555610985565b82601f1061095757805160ff1916838001178555610985565b82800160010185558215610985579182015b82811115610984578251825591602001919060010190610969565b5b5090506109929190610996565b5090565b5b808211156109af576000816000905550600101610997565b5090565b6000604051905090565b600080fd5b600080fd5b6000819050919050565b6109da816109c7565b81146109e557600080fd5b50565b6000813590506109f7816109d1565b92915050565b600060208284031215610a1357610a126109bd565b5b6000610a21848285016109e8565b91505092915050565b610a33816109c7565b82525050565b600073ffffffffffffffffffffffffffffffffffffffff82169050919050565b6000610a6482610a39565b9050919050565b610a7481610a59565b82525050565b600081519050919050565b600082825260208201905092915050565b60005b83811015610ab4578082015181840152602081019050610a99565b83811115610ac3576000848401525b50505050565b6000601f19601f8301169050919050565b6000610ae582610a7a565b610aef8185610a85565b9350610aff818560208601610a96565b610b0881610ac9565b840191505092915050565b6000606082019050610b286000830186610a2a565b610b356020830185610a6b565b8181036040830152610b478184610ada565b9050949350505050565b610b5a81610a59565b8114610b6557600080fd5b50565b600081359050610b7781610b51565b92915050565b600060208284031215610b9357610b926109bd565b5b6000610ba184828501610b68565b91505092915050565b6000602082019050610bbf6000830184610a2a565b92915050565b60006060820190508181036000830152610bdf8186610ada565b9050610bee6020830185610a2a565b610bfb6040830184610a2a565b949350505050565b6000602082019050610c186000830184610a6b565b92915050565b600060a0820190508181036000830152610c388188610ada565b9050610c476020830187610a2a565b610c546040830186610a2a565b610c616060830185610a2a565b610c6e6080830184610a2a565b9695505050505050565b6000610c8382610a39565b9050919050565b610c9381610c78565b8114610c9e57600080fd5b50565b600081359050610cb081610c8a565b92915050565b60008060408385031215610ccd57610ccc6109bd565b5b6000610cdb85828601610ca1565b9250506020610cec858286016109e8565b9150509250929050565b600080fd5b600080fd5b7f4e487b7100000000000000000000000000000000000000000000000000000000600052604160045260246000fd5b610d3882610ac9565b810181811067ffffffffffffffff82111715610d5757610d56610d00565b5b80604052505050565b6000610d6a6109b3565b9050610d768282610d2f565b919050565b600067ffffffffffffffff821115610d9657610d95610d00565b5b610d9f82610ac9565b9050602081019050919050565b82818337600083830152505050565b6000610dce610dc984610d7b565b610d60565b905082815260208101848484011115610dea57610de9610cfb565b5b610df5848285610dac565b509392505050565b600082601f830112610e1257610e11610cf6565b5b8135610e22848260208601610dbb565b91505092915050565b600080600060608486031215610e4457610e436109bd565b5b6000610e5286828701610b68565b935050602084013567ffffffffffffffff811115610e7357610e726109c2565b5b610e7f86828701610dfd565b9250506040610e90868287016109e8565b9150509250925092565b7f4e487b7100000000000000000000000000000000000000000000000000000000600052602260045260246000fd5b60006002820490506001821680610ee157607f821691505b60208210811415610ef557610ef4610e9a565b5b50919050565b7f496e73756666696369656e742062616c616e63652e0000000000000000000000600082015250565b6000610f31601583610a85565b9150610f3c82610efb565b602082019050919050565b60006020820190508181036000830152610f6081610f24565b9050919050565b7f4e487b7100000000000000000000000000000000000000000000000000000000600052601160045260246000fd5b6000610fa1826109c7565b9150610fac836109c7565b925082821015610fbf57610fbe610f67565b5b828203905092915050565b6000610fd5826109c7565b9150610fe0836109c7565b9250827fffffffffffffffffffffffffffffffffffffffffffffffffffffffffffffffff0382111561101557611014610f67565b5b82820190509291505056fea2646970667358221220a9ebc1e0b4c5744d285c9a6dbc308abab06fc28c3679020d26bb5d5a2b6cbe5a64736f6c63430008090033","opcodes":"PUSH1 0x80 PUSH1 0x40 MSTORE CALLVALUE DUP1 ISZERO PUSH2 0x10 JUMPI PUSH1 0x0 DUP1 REVERT JUMPDEST POP PUSH2 0x1056 DUP1 PUSH2 0x20 PUSH1 0x0 CODECOPY PUSH1 0x0 RETURN INVALID PUSH1 0x80 PUSH1 0x40 MSTORE CALLVALUE DUP1 ISZERO PUSH2 0x10 JUMPI PUSH1 0x0 DUP1 REVERT JUMPDEST POP PUSH1 0x4 CALLDATASIZE LT PUSH2 0x7D JUMPI PUSH1 0x0 CALLDATALOAD PUSH1 0xE0 SHR DUP1 PUSH4 0x819A9EDD GT PUSH2 0x5B JUMPI DUP1 PUSH4 0x819A9EDD EQ PUSH2 0x116 JUMPI DUP1 PUSH4 0xA87430BA EQ PUSH2 0x146 JUMPI DUP1 PUSH4 0xA9059CBB EQ PUSH2 0x17A JUMPI DUP1 PUSH4 0xF0384FB6 EQ PUSH2 0x196 JUMPI PUSH2 0x7D JUMP JUMPDEST DUP1 PUSH4 0xD1657E8 EQ PUSH2 0x82 JUMPI DUP1 PUSH4 0x422F764D EQ PUSH2 0xB4 JUMPI DUP1 PUSH4 0x6F77926B EQ PUSH2 0xE4 JUMPI JUMPDEST PUSH1 0x0 DUP1 REVERT JUMPDEST PUSH2 0x9C PUSH1 0x4 DUP1 CALLDATASIZE SUB DUP2 ADD SWAP1 PUSH2 0x97 SWAP2 SWAP1 PUSH2 0x9FD JUMP JUMPDEST PUSH2 0x1B2 JUMP JUMPDEST PUSH1 0x40 MLOAD PUSH2 0xAB SWAP4 SWAP3 SWAP2 SWAP1 PUSH2 0xB13 JUMP JUMPDEST PUSH1 0x40 MLOAD DUP1 SWAP2 SUB SWAP1 RETURN JUMPDEST PUSH2 0xCE PUSH1 0x4 DUP1 CALLDATASIZE SUB DUP2 ADD SWAP1 PUSH2 0xC9 SWAP2 SWAP1 PUSH2 0xB7D JUMP JUMPDEST PUSH2 0x294 JUMP JUMPDEST PUSH1 0x40 MLOAD PUSH2 0xDB SWAP2 SWAP1 PUSH2 0xBAA JUMP JUMPDEST PUSH1 0x40 MLOAD DUP1 SWAP2 SUB SWAP1 RETURN JUMPDEST PUSH2 0xFE PUSH1 0x4 DUP1 CALLDATASIZE SUB DUP2 ADD SWAP1 PUSH2 0xF9 SWAP2 SWAP1 PUSH2 0xB7D JUMP JUMPDEST PUSH2 0x2E4 JUMP JUMPDEST PUSH1 0x40 MLOAD PUSH2 0x10D SWAP4 SWAP3 SWAP2 SWAP1 PUSH2 0xBC5 JUMP JUMPDEST PUSH1 0x40 MLOAD DUP1 SWAP2 SUB SWAP1 RETURN JUMPDEST PUSH2 0x130 PUSH1 0x4 DUP1 CALLDATASIZE SUB DUP2 ADD SWAP1 PUSH2 0x12B SWAP2 SWAP1 PUSH2 0x9FD JUMP JUMPDEST PUSH2 0x3D3 JUMP JUMPDEST PUSH1 0x40 MLOAD PUSH2 0x13D SWAP2 SWAP1 PUSH2 0xC03 JUMP JUMPDEST PUSH1 0x40 MLOAD DUP1 SWAP2 SUB SWAP1 RETURN JUMPDEST PUSH2 0x160 PUSH1 0x4 DUP1 CALLDATASIZE SUB DUP2 ADD SWAP1 PUSH2 0x15B SWAP2 SWAP1 PUSH2 0xB7D JUMP JUMPDEST PUSH2 0x412 JUMP JUMPDEST PUSH1 0x40 MLOAD PUSH2 0x171 SWAP6 SWAP5 SWAP4 SWAP3 SWAP2 SWAP1 PUSH2 0xC1E JUMP JUMPDEST PUSH1 0x40 MLOAD DUP1 SWAP2 SUB SWAP1 RETURN JUMPDEST PUSH2 0x194 PUSH1 0x4 DUP1 CALLDATASIZE SUB DUP2 ADD SWAP1 PUSH2 0x18F SWAP2 SWAP1 PUSH2 0xCB6 JUMP JUMPDEST PUSH2 0x4D0 JUMP JUMPDEST STOP JUMPDEST PUSH2 0x1B0 PUSH1 0x4 DUP1 CALLDATASIZE SUB DUP2 ADD SWAP1 PUSH2 0x1AB SWAP2 SWAP1 PUSH2 0xE2B JUMP JUMPDEST PUSH2 0x6C1 JUMP JUMPDEST STOP JUMPDEST PUSH1 0x2 DUP2 DUP2 SLOAD DUP2 LT PUSH2 0x1C2 JUMPI PUSH1 0x0 DUP1 REVERT JUMPDEST SWAP1 PUSH1 0x0 MSTORE PUSH1 0x20 PUSH1 0x0 KECCAK256 SWAP1 PUSH1 0x3 MUL ADD PUSH1 0x0 SWAP2 POP SWAP1 POP DUP1 PUSH1 0x0 ADD SLOAD SWAP1 DUP1 PUSH1 0x1 ADD PUSH1 0x0 SWAP1 SLOAD SWAP1 PUSH2 0x100 EXP SWAP1 DIV PUSH20 0xFFFFFFFFFFFFFFFFFFFFFFFFFFFFFFFFFFFFFFFF AND SWAP1 DUP1 PUSH1 0x2 ADD DUP1 SLOAD PUSH2 0x211 SWAP1 PUSH2 0xEC9 JUMP JUMPDEST DUP1 PUSH1 0x1F ADD PUSH1 0x20 DUP1 SWAP2 DIV MUL PUSH1 0x20 ADD PUSH1 0x40 MLOAD SWAP1 DUP2 ADD PUSH1 0x40 MSTORE DUP1 SWAP3 SWAP2 SWAP1 DUP2 DUP2 MSTORE PUSH1 0x20 ADD DUP3 DUP1 SLOAD PUSH2 0x23D SWAP1 PUSH2 0xEC9 JUMP JUMPDEST DUP1 ISZERO PUSH2 0x28A JUMPI DUP1 PUSH1 0x1F LT PUSH2 0x25F JUMPI PUSH2 0x100 DUP1 DUP4 SLOAD DIV MUL DUP4 MSTORE SWAP2 PUSH1 0x20 ADD SWAP2 PUSH2 0x28A JUMP JUMPDEST DUP3 ADD SWAP2 SWAP1 PUSH1 0x0 MSTORE PUSH1 0x20 PUSH1 0x0 KECCAK256 SWAP1 JUMPDEST DUP2 SLOAD DUP2 MSTORE SWAP1 PUSH1 0x1 ADD SWAP1 PUSH1 0x20 ADD DUP1 DUP4 GT PUSH2 0x26D JUMPI DUP3 SWAP1 SUB PUSH1 0x1F AND DUP3 ADD SWAP2 JUMPDEST POP POP POP POP POP SWAP1 POP DUP4 JUMP JUMPDEST PUSH1 0x0 DUP1 PUSH1 0x0 DUP1 DUP5 PUSH20 0xFFFFFFFFFFFFFFFFFFFFFFFFFFFFFFFFFFFFFFFF AND PUSH20 0xFFFFFFFFFFFFFFFFFFFFFFFFFFFFFFFFFFFFFFFF AND DUP2 MSTORE PUSH1 0x20 ADD SWAP1 DUP2 MSTORE PUSH1 0x20 ADD PUSH1 0x0 KECCAK256 SWAP1 POP DUP1 PUSH1 0x4 ADD SLOAD SWAP2 POP POP SWAP2 SWAP1 POP JUMP JUMPDEST PUSH1 0x60 PUSH1 0x0 DUP1 PUSH1 0x0 DUP1 PUSH1 0x0 DUP7 PUSH20 0xFFFFFFFFFFFFFFFFFFFFFFFFFFFFFFFFFFFFFFFF AND PUSH20 0xFFFFFFFFFFFFFFFFFFFFFFFFFFFFFFFFFFFFFFFF AND DUP2 MSTORE PUSH1 0x20 ADD SWAP1 DUP2 MSTORE PUSH1 0x20 ADD PUSH1 0x0 KECCAK256 SWAP1 POP DUP1 PUSH1 0x0 ADD DUP2 PUSH1 0x1 ADD SLOAD DUP3 PUSH1 0x2 ADD SLOAD DUP3 DUP1 SLOAD PUSH2 0x345 SWAP1 PUSH2 0xEC9 JUMP JUMPDEST DUP1 PUSH1 0x1F ADD PUSH1 0x20 DUP1 SWAP2 DIV MUL PUSH1 0x20 ADD PUSH1 0x40 MLOAD SWAP1 DUP2 ADD PUSH1 0x40 MSTORE DUP1 SWAP3 SWAP2 SWAP1 DUP2 DUP2 MSTORE PUSH1 0x20 ADD DUP3 DUP1 SLOAD PUSH2 0x371 SWAP1 PUSH2 0xEC9 JUMP JUMPDEST DUP1 ISZERO PUSH2 0x3BE JUMPI DUP1 PUSH1 0x1F LT PUSH2 0x393 JUMPI PUSH2 0x100 DUP1 DUP4 SLOAD DIV MUL DUP4 MSTORE SWAP2 PUSH1 0x20 ADD SWAP2 PUSH2 0x3BE JUMP JUMPDEST DUP3 ADD SWAP2 SWAP1 PUSH1 0x0 MSTORE PUSH1 0x20 PUSH1 0x0 KECCAK256 SWAP1 JUMPDEST DUP2 SLOAD DUP2 MSTORE SWAP1 PUSH1 0x1 ADD SWAP1 PUSH1 0x20 ADD DUP1 DUP4 GT PUSH2 0x3A1 JUMPI DUP3 SWAP1 SUB PUSH1 0x1F AND DUP3 ADD SWAP2 JUMPDEST POP POP POP POP POP SWAP3 POP SWAP4 POP SWAP4 POP SWAP4 POP POP SWAP2 SWAP4 SWAP1 SWAP3 POP JUMP JUMPDEST PUSH1 0x1 DUP2 DUP2 SLOAD DUP2 LT PUSH2 0x3E3 JUMPI PUSH1 0x0 DUP1 REVERT JUMPDEST SWAP1 PUSH1 0x0 MSTORE PUSH1 0x20 PUSH1 0x0 KECCAK256 ADD PUSH1 0x0 SWAP2 POP SLOAD SWAP1 PUSH2 0x100 EXP SWAP1 DIV PUSH20 0xFFFFFFFFFFFFFFFFFFFFFFFFFFFFFFFFFFFFFFFF AND DUP2 JUMP JUMPDEST PUSH1 0x0 PUSH1 0x20 MSTORE DUP1 PUSH1 0x0 MSTORE PUSH1 0x40 PUSH1 0x0 KECCAK256 PUSH1 0x0 SWAP2 POP SWAP1 POP DUP1 PUSH1 0x0 ADD DUP1 SLOAD PUSH2 0x435 SWAP1 PUSH2 0xEC9 JUMP JUMPDEST DUP1 PUSH1 0x1F ADD PUSH1 0x20 DUP1 SWAP2 DIV MUL PUSH1 0x20 ADD PUSH1 0x40 MLOAD SWAP1 DUP2 ADD PUSH1 0x40 MSTORE DUP1 SWAP3 SWAP2 SWAP1 DUP2 DUP2 MSTORE PUSH1 0x20 ADD DUP3 DUP1 SLOAD PUSH2 0x461 SWAP1 PUSH2 0xEC9 JUMP JUMPDEST DUP1 ISZERO PUSH2 0x4AE JUMPI DUP1 PUSH1 0x1F LT PUSH2 0x483 JUMPI PUSH2 0x100 DUP1 DUP4 SLOAD DIV MUL DUP4 MSTORE SWAP2 PUSH1 0x20 ADD SWAP2 PUSH2 0x4AE JUMP JUMPDEST DUP3 ADD SWAP2 SWAP1 PUSH1 0x0 MSTORE PUSH1 0x20 PUSH1 0x0 KECCAK256 SWAP1 JUMPDEST DUP2 SLOAD DUP2 MSTORE SWAP1 PUSH1 0x1 ADD SWAP1 PUSH1 0x20 ADD DUP1 DUP4 GT PUSH2 0x491 JUMPI DUP3 SWAP1 SUB PUSH1 0x1F AND DUP3 ADD SWAP2 JUMPDEST POP POP POP POP POP SWAP1 DUP1 PUSH1 0x1 ADD SLOAD SWAP1 DUP1 PUSH1 0x2 ADD SLOAD SWAP1 DUP1 PUSH1 0x3 ADD SLOAD SWAP1 DUP1 PUSH1 0x4 ADD SLOAD SWAP1 POP DUP6 JUMP JUMPDEST PUSH1 0x0 DUP1 PUSH1 0x0 CALLER PUSH20 0xFFFFFFFFFFFFFFFFFFFFFFFFFFFFFFFFFFFFFFFF AND PUSH20 0xFFFFFFFFFFFFFFFFFFFFFFFFFFFFFFFFFFFFFFFF AND DUP2 MSTORE PUSH1 0x20 ADD SWAP1 DUP2 MSTORE PUSH1 0x20 ADD PUSH1 0x0 KECCAK256 SWAP1 POP DUP2 DUP2 PUSH1 0x4 ADD SLOAD LT ISZERO PUSH2 0x559 JUMPI PUSH1 0x40 MLOAD PUSH32 0x8C379A000000000000000000000000000000000000000000000000000000000 DUP2 MSTORE PUSH1 0x4 ADD PUSH2 0x550 SWAP1 PUSH2 0xF47 JUMP JUMPDEST PUSH1 0x40 MLOAD DUP1 SWAP2 SUB SWAP1 REVERT JUMPDEST DUP2 DUP2 PUSH1 0x4 ADD PUSH1 0x0 DUP3 DUP3 SLOAD PUSH2 0x56D SWAP2 SWAP1 PUSH2 0xF96 JUMP JUMPDEST SWAP3 POP POP DUP2 SWAP1 SSTORE POP DUP3 PUSH20 0xFFFFFFFFFFFFFFFFFFFFFFFFFFFFFFFFFFFFFFFF AND PUSH2 0x8FC DUP4 SWAP1 DUP2 ISZERO MUL SWAP1 PUSH1 0x40 MLOAD PUSH1 0x0 PUSH1 0x40 MLOAD DUP1 DUP4 SUB DUP2 DUP6 DUP9 DUP9 CALL SWAP4 POP POP POP POP ISZERO DUP1 ISZERO PUSH2 0x5BA JUMPI RETURNDATASIZE PUSH1 0x0 DUP1 RETURNDATACOPY RETURNDATASIZE PUSH1 0x0 REVERT JUMPDEST POP PUSH1 0x2 PUSH1 0x40 MLOAD DUP1 PUSH1 0x60 ADD PUSH1 0x40 MSTORE DUP1 NUMBER DUP2 MSTORE PUSH1 0x20 ADD CALLER PUSH20 0xFFFFFFFFFFFFFFFFFFFFFFFFFFFFFFFFFFFFFFFF AND DUP2 MSTORE PUSH1 0x20 ADD PUSH1 0x40 MLOAD DUP1 PUSH1 0x40 ADD PUSH1 0x40 MSTORE DUP1 PUSH1 0x11 DUP2 MSTORE PUSH1 0x20 ADD PUSH32 0x4574686572207472616E73666572726564000000000000000000000000000000 DUP2 MSTORE POP DUP2 MSTORE POP SWAP1 DUP1 PUSH1 0x1 DUP2 SLOAD ADD DUP1 DUP3 SSTORE DUP1 SWAP2 POP POP PUSH1 0x1 SWAP1 SUB SWAP1 PUSH1 0x0 MSTORE PUSH1 0x20 PUSH1 0x0 KECCAK256 SWAP1 PUSH1 0x3 MUL ADD PUSH1 0x0 SWAP1 SWAP2 SWAP1 SWAP2 SWAP1 SWAP2 POP PUSH1 0x0 DUP3 ADD MLOAD DUP2 PUSH1 0x0 ADD SSTORE PUSH1 0x20 DUP3 ADD MLOAD DUP2 PUSH1 0x1 ADD PUSH1 0x0 PUSH2 0x100 EXP DUP2 SLOAD DUP2 PUSH20 0xFFFFFFFFFFFFFFFFFFFFFFFFFFFFFFFFFFFFFFFF MUL NOT AND SWAP1 DUP4 PUSH20 0xFFFFFFFFFFFFFFFFFFFFFFFFFFFFFFFFFFFFFFFF AND MUL OR SWAP1 SSTORE POP PUSH1 0x40 DUP3 ADD MLOAD DUP2 PUSH1 0x2 ADD SWAP1 DUP1 MLOAD SWAP1 PUSH1 0x20 ADD SWAP1 PUSH2 0x6B9 SWAP3 SWAP2 SWAP1 PUSH2 0x910 JUMP JUMPDEST POP POP POP POP POP POP JUMP JUMPDEST PUSH1 0x40 MLOAD DUP1 PUSH1 0xA0 ADD PUSH1 0x40 MSTORE DUP1 DUP4 DUP2 MSTORE PUSH1 0x20 ADD DUP5 PUSH20 0xFFFFFFFFFFFFFFFFFFFFFFFFFFFFFFFFFFFFFFFF AND BALANCE DUP2 MSTORE PUSH1 0x20 ADD NUMBER DUP2 MSTORE PUSH1 0x20 ADD DUP3 DUP2 MSTORE PUSH1 0x20 ADD DUP5 PUSH20 0xFFFFFFFFFFFFFFFFFFFFFFFFFFFFFFFFFFFFFFFF AND BALANCE DUP4 PUSH2 0x71E SWAP2 SWAP1 PUSH2 0xFCA JUMP JUMPDEST DUP2 MSTORE POP PUSH1 0x0 DUP1 DUP6 PUSH20 0xFFFFFFFFFFFFFFFFFFFFFFFFFFFFFFFFFFFFFFFF AND PUSH20 0xFFFFFFFFFFFFFFFFFFFFFFFFFFFFFFFFFFFFFFFF AND DUP2 MSTORE PUSH1 0x20 ADD SWAP1 DUP2 MSTORE PUSH1 0x20 ADD PUSH1 0x0 KECCAK256 PUSH1 0x0 DUP3 ADD MLOAD DUP2 PUSH1 0x0 ADD SWAP1 DUP1 MLOAD SWAP1 PUSH1 0x20 ADD SWAP1 PUSH2 0x77B SWAP3 SWAP2 SWAP1 PUSH2 0x910 JUMP JUMPDEST POP PUSH1 0x20 DUP3 ADD MLOAD DUP2 PUSH1 0x1 ADD SSTORE PUSH1 0x40 DUP3 ADD MLOAD DUP2 PUSH1 0x2 ADD SSTORE PUSH1 0x60 DUP3 ADD MLOAD DUP2 PUSH1 0x3 ADD SSTORE PUSH1 0x80 DUP3 ADD MLOAD DUP2 PUSH1 0x4 ADD SSTORE SWAP1 POP POP PUSH1 0x1 DUP4 SWAP1 DUP1 PUSH1 0x1 DUP2 SLOAD ADD DUP1 DUP3 SSTORE DUP1 SWAP2 POP POP PUSH1 0x1 SWAP1 SUB SWAP1 PUSH1 0x0 MSTORE PUSH1 0x20 PUSH1 0x0 KECCAK256 ADD PUSH1 0x0 SWAP1 SWAP2 SWAP1 SWAP2 SWAP1 SWAP2 PUSH2 0x100 EXP DUP2 SLOAD DUP2 PUSH20 0xFFFFFFFFFFFFFFFFFFFFFFFFFFFFFFFFFFFFFFFF MUL NOT AND SWAP1 DUP4 PUSH20 0xFFFFFFFFFFFFFFFFFFFFFFFFFFFFFFFFFFFFFFFF AND MUL OR SWAP1 SSTORE POP PUSH1 0x2 PUSH1 0x40 MLOAD DUP1 PUSH1 0x60 ADD PUSH1 0x40 MSTORE DUP1 NUMBER DUP2 MSTORE PUSH1 0x20 ADD CALLER PUSH20 0xFFFFFFFFFFFFFFFFFFFFFFFFFFFFFFFFFFFFFFFF AND DUP2 MSTORE PUSH1 0x20 ADD PUSH1 0x40 MLOAD DUP1 PUSH1 0x40 ADD PUSH1 0x40 MSTORE DUP1 PUSH1 0xC DUP2 MSTORE PUSH1 0x20 ADD PUSH32 0x557365722061646465643A200000000000000000000000000000000000000000 DUP2 MSTORE POP DUP2 MSTORE POP SWAP1 DUP1 PUSH1 0x1 DUP2 SLOAD ADD DUP1 DUP3 SSTORE DUP1 SWAP2 POP POP PUSH1 0x1 SWAP1 SUB SWAP1 PUSH1 0x0 MSTORE PUSH1 0x20 PUSH1 0x0 KECCAK256 SWAP1 PUSH1 0x3 MUL ADD PUSH1 0x0 SWAP1 SWAP2 SWAP1 SWAP2 SWAP1 SWAP2 POP PUSH1 0x0 DUP3 ADD MLOAD DUP2 PUSH1 0x0 ADD SSTORE PUSH1 0x20 DUP3 ADD MLOAD DUP2 PUSH1 0x1 ADD PUSH1 0x0 PUSH2 0x100 EXP DUP2 SLOAD DUP2 PUSH20 0xFFFFFFFFFFFFFFFFFFFFFFFFFFFFFFFFFFFFFFFF MUL NOT AND SWAP1 DUP4 PUSH20 0xFFFFFFFFFFFFFFFFFFFFFFFFFFFFFFFFFFFFFFFF AND MUL OR SWAP1 SSTORE POP PUSH1 0x40 DUP3 ADD MLOAD DUP2 PUSH1 0x2 ADD SWAP1 DUP1 MLOAD SWAP1 PUSH1 0x20 ADD SWAP1 PUSH2 0x908 SWAP3 SWAP2 SWAP1 PUSH2 0x910 JUMP JUMPDEST POP POP POP POP POP POP JUMP JUMPDEST DUP3 DUP1 SLOAD PUSH2 0x91C SWAP1 PUSH2 0xEC9 JUMP JUMPDEST SWAP1 PUSH1 0x0 MSTORE PUSH1 0x20 PUSH1 0x0 KECCAK256 SWAP1 PUSH1 0x1F ADD PUSH1 0x20 SWAP1 DIV DUP2 ADD SWAP3 DUP3 PUSH2 0x93E JUMPI PUSH1 0x0 DUP6 SSTORE PUSH2 0x985 JUMP JUMPDEST DUP3 PUSH1 0x1F LT PUSH2 0x957 JUMPI DUP1 MLOAD PUSH1 0xFF NOT AND DUP4 DUP1 ADD OR DUP6 SSTORE PUSH2 0x985 JUMP JUMPDEST DUP3 DUP1 ADD PUSH1 0x1 ADD DUP6 SSTORE DUP3 ISZERO PUSH2 0x985 JUMPI SWAP2 DUP3 ADD JUMPDEST DUP3 DUP2 GT ISZERO PUSH2 0x984 JUMPI DUP3 MLOAD DUP3 SSTORE SWAP2 PUSH1 0x20 ADD SWAP2 SWAP1 PUSH1 0x1 ADD SWAP1 PUSH2 0x969 JUMP JUMPDEST JUMPDEST POP SWAP1 POP PUSH2 0x992 SWAP2 SWAP1 PUSH2 0x996 JUMP JUMPDEST POP SWAP1 JUMP JUMPDEST JUMPDEST DUP1 DUP3 GT ISZERO PUSH2 0x9AF JUMPI PUSH1 0x0 DUP2 PUSH1 0x0 SWAP1 SSTORE POP PUSH1 0x1 ADD PUSH2 0x997 JUMP JUMPDEST POP SWAP1 JUMP JUMPDEST PUSH1 0x0 PUSH1 0x40 MLOAD SWAP1 POP SWAP1 JUMP JUMPDEST PUSH1 0x0 DUP1 REVERT JUMPDEST PUSH1 0x0 DUP1 REVERT JUMPDEST PUSH1 0x0 DUP2 SWAP1 POP SWAP2 SWAP1 POP JUMP JUMPDEST PUSH2 0x9DA DUP2 PUSH2 0x9C7 JUMP JUMPDEST DUP2 EQ PUSH2 0x9E5 JUMPI PUSH1 0x0 DUP1 REVERT JUMPDEST POP JUMP JUMPDEST PUSH1 0x0 DUP2 CALLDATALOAD SWAP1 POP PUSH2 0x9F7 DUP2 PUSH2 0x9D1 JUMP JUMPDEST SWAP3 SWAP2 POP POP JUMP JUMPDEST PUSH1 0x0 PUSH1 0x20 DUP3 DUP5 SUB SLT ISZERO PUSH2 0xA13 JUMPI PUSH2 0xA12 PUSH2 0x9BD JUMP JUMPDEST JUMPDEST PUSH1 0x0 PUSH2 0xA21 DUP5 DUP3 DUP6 ADD PUSH2 0x9E8 JUMP JUMPDEST SWAP2 POP POP SWAP3 SWAP2 POP POP JUMP JUMPDEST PUSH2 0xA33 DUP2 PUSH2 0x9C7 JUMP JUMPDEST DUP3 MSTORE POP POP JUMP JUMPDEST PUSH1 0x0 PUSH20 0xFFFFFFFFFFFFFFFFFFFFFFFFFFFFFFFFFFFFFFFF DUP3 AND SWAP1 POP SWAP2 SWAP1 POP JUMP JUMPDEST PUSH1 0x0 PUSH2 0xA64 DUP3 PUSH2 0xA39 JUMP JUMPDEST SWAP1 POP SWAP2 SWAP1 POP JUMP JUMPDEST PUSH2 0xA74 DUP2 PUSH2 0xA59 JUMP JUMPDEST DUP3 MSTORE POP POP JUMP JUMPDEST PUSH1 0x0 DUP2 MLOAD SWAP1 POP SWAP2 SWAP1 POP JUMP JUMPDEST PUSH1 0x0 DUP3 DUP3 MSTORE PUSH1 0x20 DUP3 ADD SWAP1 POP SWAP3 SWAP2 POP POP JUMP JUMPDEST PUSH1 0x0 JUMPDEST DUP4 DUP2 LT ISZERO PUSH2 0xAB4 JUMPI DUP1 DUP3 ADD MLOAD DUP2 DUP5 ADD MSTORE PUSH1 0x20 DUP2 ADD SWAP1 POP PUSH2 0xA99 JUMP JUMPDEST DUP4 DUP2 GT ISZERO PUSH2 0xAC3 JUMPI PUSH1 0x0 DUP5 DUP5 ADD MSTORE JUMPDEST POP POP POP POP JUMP JUMPDEST PUSH1 0x0 PUSH1 0x1F NOT PUSH1 0x1F DUP4 ADD AND SWAP1 POP SWAP2 SWAP1 POP JUMP JUMPDEST PUSH1 0x0 PUSH2 0xAE5 DUP3 PUSH2 0xA7A JUMP JUMPDEST PUSH2 0xAEF DUP2 DUP6 PUSH2 0xA85 JUMP JUMPDEST SWAP4 POP PUSH2 0xAFF DUP2 DUP6 PUSH1 0x20 DUP7 ADD PUSH2 0xA96 JUMP JUMPDEST PUSH2 0xB08 DUP2 PUSH2 0xAC9 JUMP JUMPDEST DUP5 ADD SWAP2 POP POP SWAP3 SWAP2 POP POP JUMP JUMPDEST PUSH1 0x0 PUSH1 0x60 DUP3 ADD SWAP1 POP PUSH2 0xB28 PUSH1 0x0 DUP4 ADD DUP7 PUSH2 0xA2A JUMP JUMPDEST PUSH2 0xB35 PUSH1 0x20 DUP4 ADD DUP6 PUSH2 0xA6B JUMP JUMPDEST DUP2 DUP2 SUB PUSH1 0x40 DUP4 ADD MSTORE PUSH2 0xB47 DUP2 DUP5 PUSH2 0xADA JUMP JUMPDEST SWAP1 POP SWAP5 SWAP4 POP POP POP POP JUMP JUMPDEST PUSH2 0xB5A DUP2 PUSH2 0xA59 JUMP JUMPDEST DUP2 EQ PUSH2 0xB65 JUMPI PUSH1 0x0 DUP1 REVERT JUMPDEST POP JUMP JUMPDEST PUSH1 0x0 DUP2 CALLDATALOAD SWAP1 POP PUSH2 0xB77 DUP2 PUSH2 0xB51 JUMP JUMPDEST SWAP3 SWAP2 POP POP JUMP JUMPDEST PUSH1 0x0 PUSH1 0x20 DUP3 DUP5 SUB SLT ISZERO PUSH2 0xB93 JUMPI PUSH2 0xB92 PUSH2 0x9BD JUMP JUMPDEST JUMPDEST PUSH1 0x0 PUSH2 0xBA1 DUP5 DUP3 DUP6 ADD PUSH2 0xB68 JUMP JUMPDEST SWAP2 POP POP SWAP3 SWAP2 POP POP JUMP JUMPDEST PUSH1 0x0 PUSH1 0x20 DUP3 ADD SWAP1 POP PUSH2 0xBBF PUSH1 0x0 DUP4 ADD DUP5 PUSH2 0xA2A JUMP JUMPDEST SWAP3 SWAP2 POP POP JUMP JUMPDEST PUSH1 0x0 PUSH1 0x60 DUP3 ADD SWAP1 POP DUP2 DUP2 SUB PUSH1 0x0 DUP4 ADD MSTORE PUSH2 0xBDF DUP2 DUP7 PUSH2 0xADA JUMP JUMPDEST SWAP1 POP PUSH2 0xBEE PUSH1 0x20 DUP4 ADD DUP6 PUSH2 0xA2A JUMP JUMPDEST PUSH2 0xBFB PUSH1 0x40 DUP4 ADD DUP5 PUSH2 0xA2A JUMP JUMPDEST SWAP5 SWAP4 POP POP POP POP JUMP JUMPDEST PUSH1 0x0 PUSH1 0x20 DUP3 ADD SWAP1 POP PUSH2 0xC18 PUSH1 0x0 DUP4 ADD DUP5 PUSH2 0xA6B JUMP JUMPDEST SWAP3 SWAP2 POP POP JUMP JUMPDEST PUSH1 0x0 PUSH1 0xA0 DUP3 ADD SWAP1 POP DUP2 DUP2 SUB PUSH1 0x0 DUP4 ADD MSTORE PUSH2 0xC38 DUP2 DUP9 PUSH2 0xADA JUMP JUMPDEST SWAP1 POP PUSH2 0xC47 PUSH1 0x20 DUP4 ADD DUP8 PUSH2 0xA2A JUMP JUMPDEST PUSH2 0xC54 PUSH1 0x40 DUP4 ADD DUP7 PUSH2 0xA2A JUMP JUMPDEST PUSH2 0xC61 PUSH1 0x60 DUP4 ADD DUP6 PUSH2 0xA2A JUMP JUMPDEST PUSH2 0xC6E PUSH1 0x80 DUP4 ADD DUP5 PUSH2 0xA2A JUMP JUMPDEST SWAP7 SWAP6 POP POP POP POP POP POP JUMP JUMPDEST PUSH1 0x0 PUSH2 0xC83 DUP3 PUSH2 0xA39 JUMP JUMPDEST SWAP1 POP SWAP2 SWAP1 POP JUMP JUMPDEST PUSH2 0xC93 DUP2 PUSH2 0xC78 JUMP JUMPDEST DUP2 EQ PUSH2 0xC9E JUMPI PUSH1 0x0 DUP1 REVERT JUMPDEST POP JUMP JUMPDEST PUSH1 0x0 DUP2 CALLDATALOAD SWAP1 POP PUSH2 0xCB0 DUP2 PUSH2 0xC8A JUMP JUMPDEST SWAP3 SWAP2 POP POP JUMP JUMPDEST PUSH1 0x0 DUP1 PUSH1 0x40 DUP4 DUP6 SUB SLT ISZERO PUSH2 0xCCD JUMPI PUSH2 0xCCC PUSH2 0x9BD JUMP JUMPDEST JUMPDEST PUSH1 0x0 PUSH2 0xCDB DUP6 DUP3 DUP7 ADD PUSH2 0xCA1 JUMP JUMPDEST SWAP3 POP POP PUSH1 0x20 PUSH2 0xCEC DUP6 DUP3 DUP7 ADD PUSH2 0x9E8 JUMP JUMPDEST SWAP2 POP POP SWAP3 POP SWAP3 SWAP1 POP JUMP JUMPDEST PUSH1 0x0 DUP1 REVERT JUMPDEST PUSH1 0x0 DUP1 REVERT JUMPDEST PUSH32 0x4E487B7100000000000000000000000000000000000000000000000000000000 PUSH1 0x0 MSTORE PUSH1 0x41 PUSH1 0x4 MSTORE PUSH1 0x24 PUSH1 0x0 REVERT JUMPDEST PUSH2 0xD38 DUP3 PUSH2 0xAC9 JUMP JUMPDEST DUP2 ADD DUP2 DUP2 LT PUSH8 0xFFFFFFFFFFFFFFFF DUP3 GT OR ISZERO PUSH2 0xD57 JUMPI PUSH2 0xD56 PUSH2 0xD00 JUMP JUMPDEST JUMPDEST DUP1 PUSH1 0x40 MSTORE POP POP POP JUMP JUMPDEST PUSH1 0x0 PUSH2 0xD6A PUSH2 0x9B3 JUMP JUMPDEST SWAP1 POP PUSH2 0xD76 DUP3 DUP3 PUSH2 0xD2F JUMP JUMPDEST SWAP2 SWAP1 POP JUMP JUMPDEST PUSH1 0x0 PUSH8 0xFFFFFFFFFFFFFFFF DUP3 GT ISZERO PUSH2 0xD96 JUMPI PUSH2 0xD95 PUSH2 0xD00 JUMP JUMPDEST JUMPDEST PUSH2 0xD9F DUP3 PUSH2 0xAC9 JUMP JUMPDEST SWAP1 POP PUSH1 0x20 DUP2 ADD SWAP1 POP SWAP2 SWAP1 POP JUMP JUMPDEST DUP3 DUP2 DUP4 CALLDATACOPY PUSH1 0x0 DUP4 DUP4 ADD MSTORE POP POP POP JUMP JUMPDEST PUSH1 0x0 PUSH2 0xDCE PUSH2 0xDC9 DUP5 PUSH2 0xD7B JUMP JUMPDEST PUSH2 0xD60 JUMP JUMPDEST SWAP1 POP DUP3 DUP2 MSTORE PUSH1 0x20 DUP2 ADD DUP5 DUP5 DUP5 ADD GT ISZERO PUSH2 0xDEA JUMPI PUSH2 0xDE9 PUSH2 0xCFB JUMP JUMPDEST JUMPDEST PUSH2 0xDF5 DUP5 DUP3 DUP6 PUSH2 0xDAC JUMP JUMPDEST POP SWAP4 SWAP3 POP POP POP JUMP JUMPDEST PUSH1 0x0 DUP3 PUSH1 0x1F DUP4 ADD SLT PUSH2 0xE12 JUMPI PUSH2 0xE11 PUSH2 0xCF6 JUMP JUMPDEST JUMPDEST DUP2 CALLDATALOAD PUSH2 0xE22 DUP5 DUP3 PUSH1 0x20 DUP7 ADD PUSH2 0xDBB JUMP JUMPDEST SWAP2 POP POP SWAP3 SWAP2 POP POP JUMP JUMPDEST PUSH1 0x0 DUP1 PUSH1 0x0 PUSH1 0x60 DUP5 DUP7 SUB SLT ISZERO PUSH2 0xE44 JUMPI PUSH2 0xE43 PUSH2 0x9BD JUMP JUMPDEST JUMPDEST PUSH1 0x0 PUSH2 0xE52 DUP7 DUP3 DUP8 ADD PUSH2 0xB68 JUMP JUMPDEST SWAP4 POP POP PUSH1 0x20 DUP5 ADD CALLDATALOAD PUSH8 0xFFFFFFFFFFFFFFFF DUP2 GT ISZERO PUSH2 0xE73 JUMPI PUSH2 0xE72 PUSH2 0x9C2 JUMP JUMPDEST JUMPDEST PUSH2 0xE7F DUP7 DUP3 DUP8 ADD PUSH2 0xDFD JUMP JUMPDEST SWAP3 POP POP PUSH1 0x40 PUSH2 0xE90 DUP7 DUP3 DUP8 ADD PUSH2 0x9E8 JUMP JUMPDEST SWAP2 POP POP SWAP3 POP SWAP3 POP SWAP3 JUMP JUMPDEST PUSH32 0x4E487B7100000000000000000000000000000000000000000000000000000000 PUSH1 0x0 MSTORE PUSH1 0x22 PUSH1 0x4 MSTORE PUSH1 0x24 PUSH1 0x0 REVERT JUMPDEST PUSH1 0x0 PUSH1 0x2 DUP3 DIV SWAP1 POP PUSH1 0x1 DUP3 AND DUP1 PUSH2 0xEE1 JUMPI PUSH1 0x7F DUP3 AND SWAP2 POP JUMPDEST PUSH1 0x20 DUP3 LT DUP2 EQ ISZERO PUSH2 0xEF5 JUMPI PUSH2 0xEF4 PUSH2 0xE9A JUMP JUMPDEST JUMPDEST POP SWAP2 SWAP1 POP JUMP JUMPDEST PUSH32 0x496E73756666696369656E742062616C616E63652E0000000000000000000000 PUSH1 0x0 DUP3 ADD MSTORE POP JUMP JUMPDEST PUSH1 0x0 PUSH2 0xF31 PUSH1 0x15 DUP4 PUSH2 0xA85 JUMP JUMPDEST SWAP2 POP PUSH2 0xF3C DUP3 PUSH2 0xEFB JUMP JUMPDEST PUSH1 0x20 DUP3 ADD SWAP1 POP SWAP2 SWAP1 POP JUMP JUMPDEST PUSH1 0x0 PUSH1 0x20 DUP3 ADD SWAP1 POP DUP2 DUP2 SUB PUSH1 0x0 DUP4 ADD MSTORE PUSH2 0xF60 DUP2 PUSH2 0xF24 JUMP JUMPDEST SWAP1 POP SWAP2 SWAP1 POP JUMP JUMPDEST PUSH32 0x4E487B7100000000000000000000000000000000000000000000000000000000 PUSH1 0x0 MSTORE PUSH1 0x11 PUSH1 0x4 MSTORE PUSH1 0x24 PUSH1 0x0 REVERT JUMPDEST PUSH1 0x0 PUSH2 0xFA1 DUP3 PUSH2 0x9C7 JUMP JUMPDEST SWAP2 POP PUSH2 0xFAC DUP4 PUSH2 0x9C7 JUMP JUMPDEST SWAP3 POP DUP3 DUP3 LT ISZERO PUSH2 0xFBF JUMPI PUSH2 0xFBE PUSH2 0xF67 JUMP JUMPDEST JUMPDEST DUP3 DUP3 SUB SWAP1 POP SWAP3 SWAP2 POP POP JUMP JUMPDEST PUSH1 0x0 PUSH2 0xFD5 DUP3 PUSH2 0x9C7 JUMP JUMPDEST SWAP2 POP PUSH2 0xFE0 DUP4 PUSH2 0x9C7 JUMP JUMPDEST SWAP3 POP DUP3 PUSH32 0xFFFFFFFFFFFFFFFFFFFFFFFFFFFFFFFFFFFFFFFFFFFFFFFFFFFFFFFFFFFFFFFF SUB DUP3 GT ISZERO PUSH2 0x1015 JUMPI PUSH2 0x1014 PUSH2 0xF67 JUMP JUMPDEST JUMPDEST DUP3 DUP3 ADD SWAP1 POP SWAP3 SWAP2 POP POP JUMP INVALID LOG2 PUSH5 0x6970667358 0x22 SLT KECCAK256 0xA9 0xEB 0xC1 0xE0 0xB4 0xC5 PUSH21 0x4D285C9A6DBC308ABAB06FC28C3679020D26BB5D5A 0x2B PUSH13 0xBE5A64736F6C63430008090033 "},"methodIdentifiers":{"activities(uint256)":"0d1657e8","addUser(address,string,uint256)":"f0384fb6","getCurrentValue(address)":"422f764d","getUser(address)":"6f77926b","transfer(address,uint256)":"a9059cbb","users(address)":"a87430ba","usersAdded(uint256)":"819a9edd"}}}}}